{
  "contracts/Polls.sol": {
    "Polls": {
      "abi": [
        {
          "inputs": [
            {
              "internalType": "bytes32",
              "name": "_creatorEmailHash",
              "type": "bytes32"
            },
            {
              "internalType": "string",
              "name": "_name",
              "type": "string"
            },
            {
              "internalType": "string",
              "name": "_description",
              "type": "string"
            },
            {
              "internalType": "uint256",
              "name": "_startsAt",
              "type": "uint256"
            },
            {
              "internalType": "uint256",
              "name": "_endsAt",
              "type": "uint256"
            },
            {
              "internalType": "string[]",
              "name": "_candidates",
              "type": "string[]"
            },
            {
              "internalType": "bytes32[]",
              "name": "_voterHashes",
              "type": "bytes32[]"
            }
          ],
          "name": "createPoll",
          "outputs": [],
          "stateMutability": "nonpayable",
          "type": "function"
        },
        {
          "inputs": [
            {
              "internalType": "uint256",
              "name": "_pollId",
              "type": "uint256"
            }
          ],
          "name": "getPoll",
          "outputs": [
            {
              "internalType": "string",
              "name": "name",
              "type": "string"
            },
            {
              "internalType": "string",
              "name": "description",
              "type": "string"
            },
            {
              "internalType": "uint256",
              "name": "startsAt",
              "type": "uint256"
            },
            {
              "internalType": "uint256",
              "name": "endsAt",
              "type": "uint256"
            },
            {
              "internalType": "string[]",
              "name": "candidates",
              "type": "string[]"
            }
          ],
          "stateMutability": "view",
          "type": "function"
        },
        {
          "inputs": [],
          "name": "getPollCount",
          "outputs": [
            {
              "internalType": "uint256",
              "name": "",
              "type": "uint256"
            }
          ],
          "stateMutability": "view",
          "type": "function"
        },
        {
          "inputs": [
            {
              "internalType": "bytes32",
              "name": "_creatorEmailHash",
              "type": "bytes32"
            }
          ],
          "name": "getPollsByCreator",
          "outputs": [
            {
              "internalType": "uint256[]",
              "name": "pollIds",
              "type": "uint256[]"
            },
            {
              "internalType": "string[]",
              "name": "names",
              "type": "string[]"
            },
            {
              "internalType": "string[]",
              "name": "descriptions",
              "type": "string[]"
            },
            {
              "internalType": "uint256[]",
              "name": "startsAt",
              "type": "uint256[]"
            },
            {
              "internalType": "uint256[]",
              "name": "endsAt",
              "type": "uint256[]"
            }
          ],
          "stateMutability": "view",
          "type": "function"
        },
        {
          "inputs": [
            {
              "internalType": "bytes32",
              "name": "_voterEmailHash",
              "type": "bytes32"
            }
          ],
          "name": "getPollsByVoter",
          "outputs": [
            {
              "internalType": "uint256[]",
              "name": "pollIds",
              "type": "uint256[]"
            },
            {
              "internalType": "string[]",
              "name": "names",
              "type": "string[]"
            },
            {
              "internalType": "string[]",
              "name": "descriptions",
              "type": "string[]"
            },
            {
              "internalType": "uint256[]",
              "name": "startsAt",
              "type": "uint256[]"
            },
            {
              "internalType": "uint256[]",
              "name": "endsAt",
              "type": "uint256[]"
            }
          ],
          "stateMutability": "view",
          "type": "function"
        },
        {
          "inputs": [],
          "name": "pollCount",
          "outputs": [
            {
              "internalType": "uint256",
              "name": "",
              "type": "uint256"
            }
          ],
          "stateMutability": "view",
          "type": "function"
        },
        {
          "inputs": [
            {
              "internalType": "uint256",
              "name": "",
              "type": "uint256"
            }
          ],
          "name": "polls",
          "outputs": [
            {
              "internalType": "address",
              "name": "creator",
              "type": "address"
            },
            {
              "internalType": "bytes32",
              "name": "creatorEmailHash",
              "type": "bytes32"
            },
            {
              "internalType": "string",
              "name": "name",
              "type": "string"
            },
            {
              "internalType": "string",
              "name": "description",
              "type": "string"
            },
            {
              "internalType": "uint256",
              "name": "startsAt",
              "type": "uint256"
            },
            {
              "internalType": "uint256",
              "name": "endsAt",
              "type": "uint256"
            },
            {
              "internalType": "uint256",
              "name": "candidateCount",
              "type": "uint256"
            },
            {
              "internalType": "uint256",
              "name": "voterCount",
              "type": "uint256"
            }
          ],
          "stateMutability": "view",
          "type": "function"
        },
        {
          "inputs": [
            {
              "internalType": "uint256",
              "name": "_pollId",
              "type": "uint256"
            },
            {
              "internalType": "uint256",
              "name": "_candidateId",
              "type": "uint256"
            },
            {
              "internalType": "bytes32",
              "name": "_emailHash",
              "type": "bytes32"
            }
          ],
          "name": "vote",
          "outputs": [],
          "stateMutability": "nonpayable",
          "type": "function"
        }
      ],
      "evm": {
        "bytecode": {
          "linkReferences": {},
          "object": "6080604052348015600f57600080fd5b506125678061001f6000396000f3fe608060405234801561001057600080fd5b50600436106100885760003560e01c80639207891d1161005b5780639207891d1461012f578063ac2f00741461014d578063c7f1643414610184578063fa24a7b3146101a057610088565b806311a527461461008d5780631a8cbcaa146100ab57806387612416146100df5780638c881eeb14610113575b600080fd5b6100956101d4565b6040516100a29190611457565b60405180910390f35b6100c560048036038101906100c091906114b2565b6101de565b6040516100d695949392919061167b565b60405180910390f35b6100f960048036038101906100f49190611719565b6104d1565b60405161010a959493929190611804565b60405180910390f35b61012d6004803603810190610128919061187a565b610907565b005b610137610b70565b6040516101449190611457565b60405180910390f35b610167600480360381019061016291906114b2565b610b76565b60405161017b98979695949392919061191d565b60405180910390f35b61019e60048036038101906101999190611c87565b610cee565b005b6101ba60048036038101906101b59190611719565b610f70565b6040516101cb959493929190611804565b60405180910390f35b6000600154905090565b60608060008060606000861180156101f857506001548611155b610237576040517f08c379a000000000000000000000000000000000000000000000000000000000815260040161022e90611de5565b60405180910390fd5b60008060008881526020019081526020016000209050806007015467ffffffffffffffff81111561026b5761026a6119b3565b5b60405190808252806020026020018201604052801561029e57816020015b60608152602001906001900390816102895790505b5091506000600190505b816007015481116103915781600601600082815260200190815260200160002060000180546102d690611e34565b80601f016020809104026020016040519081016040528092919081815260200182805461030290611e34565b801561034f5780601f106103245761010080835404028352916020019161034f565b820191906000526020600020905b81548152906001019060200180831161033257829003601f168201915b5050505050836001836103629190611e94565b8151811061037357610372611ec8565b5b6020026020010181905250808061038990611ef7565b9150506102a8565b50806002018160030182600401548360050154858480546103b190611e34565b80601f01602080910402602001604051908101604052809291908181526020018280546103dd90611e34565b801561042a5780601f106103ff5761010080835404028352916020019161042a565b820191906000526020600020905b81548152906001019060200180831161040d57829003601f168201915b5050505050945083805461043d90611e34565b80601f016020809104026020016040519081016040528092919081815260200182805461046990611e34565b80156104b65780601f1061048b576101008083540402835291602001916104b6565b820191906000526020600020905b81548152906001019060200180831161049957829003601f168201915b50505050509350955095509550955095505091939590929450565b6060806060806060600080600190505b60015481116105285787600080838152602001908152602001600020600101540361051557818061051190611ef7565b9250505b808061052090611ef7565b9150506104e1565b508067ffffffffffffffff811115610543576105426119b3565b5b6040519080825280602002602001820160405280156105715781602001602082028036833780820191505090505b5095508067ffffffffffffffff81111561058e5761058d6119b3565b5b6040519080825280602002602001820160405280156105c157816020015b60608152602001906001900390816105ac5790505b5094508067ffffffffffffffff8111156105de576105dd6119b3565b5b60405190808252806020026020018201604052801561061157816020015b60608152602001906001900390816105fc5790505b5093508067ffffffffffffffff81111561062e5761062d6119b3565b5b60405190808252806020026020018201604052801561065c5781602001602082028036833780820191505090505b5092508067ffffffffffffffff811115610679576106786119b3565b5b6040519080825280602002602001820160405280156106a75781602001602082028036833780820191505090505b509150600080600190505b60015481116108fb578860008083815260200190815260200160002060010154036108e857808883815181106106eb576106ea611ec8565b5b602002602001018181525050600080828152602001908152602001600020600201805461071790611e34565b80601f016020809104026020016040519081016040528092919081815260200182805461074390611e34565b80156107905780601f1061076557610100808354040283529160200191610790565b820191906000526020600020905b81548152906001019060200180831161077357829003601f168201915b50505050508783815181106107a8576107a7611ec8565b5b602002602001018190525060008082815260200190815260200160002060030180546107d390611e34565b80601f01602080910402602001604051908101604052809291908181526020018280546107ff90611e34565b801561084c5780601f106108215761010080835404028352916020019161084c565b820191906000526020600020905b81548152906001019060200180831161082f57829003601f168201915b505050505086838151811061086457610863611ec8565b5b60200260200101819052506000808281526020019081526020016000206004015485838151811061089857610897611ec8565b5b602002602001018181525050600080828152602001908152602001600020600501548483815181106108cd576108cc611ec8565b5b60200260200101818152505081806108e490611ef7565b9250505b80806108f390611ef7565b9150506106b2565b50505091939590929450565b60008311801561091957506001548311155b610958576040517f08c379a000000000000000000000000000000000000000000000000000000000815260040161094f90611de5565b60405180910390fd5b6000806000858152602001908152602001600020905080600401544210158015610986575080600501544211155b6109c5576040517f08c379a00000000000000000000000000000000000000000000000000000000081526004016109bc90611f8b565b60405180910390fd5b80600a01600083815260200190815260200160002060009054906101000a900460ff1615610a28576040517f08c379a0000000000000000000000000000000000000000000000000000000008152600401610a1f90611ff7565b60405180910390fd5b600080600190505b82600901548111610a7357838360080160008381526020019081526020016000205403610a605760019150610a73565b8080610a6b90611ef7565b915050610a30565b5080610ab4576040517f08c379a0000000000000000000000000000000000000000000000000000000008152600401610aab90612063565b60405180910390fd5b600082600601600086815260200190815260200160002090506000816000018054610ade90611e34565b905011610b20576040517f08c379a0000000000000000000000000000000000000000000000000000000008152600401610b17906120cf565b60405180910390fd5b600183600a01600086815260200190815260200160002060006101000a81548160ff021916908315150217905550806001016000815480929190610b6390611ef7565b9190505550505050505050565b60015481565b60006020528060005260406000206000915090508060000160009054906101000a900473ffffffffffffffffffffffffffffffffffffffff1690806001015490806002018054610bc590611e34565b80601f0160208091040260200160405190810160405280929190818152602001828054610bf190611e34565b8015610c3e5780601f10610c1357610100808354040283529160200191610c3e565b820191906000526020600020905b815481529060010190602001808311610c2157829003601f168201915b505050505090806003018054610c5390611e34565b80601f0160208091040260200160405190810160405280929190818152602001828054610c7f90611e34565b8015610ccc5780601f10610ca157610100808354040283529160200191610ccc565b820191906000526020600020905b815481529060010190602001808311610caf57829003601f168201915b5050505050908060040154908060050154908060070154908060090154905088565b828410610d30576040517f08c379a0000000000000000000000000000000000000000000000000000000008152600401610d2790612161565b60405180910390fd5b6000825111610d74576040517f08c379a0000000000000000000000000000000000000000000000000000000008152600401610d6b906121f3565b60405180910390fd5b6000815111610db8576040517f08c379a0000000000000000000000000000000000000000000000000000000008152600401610daf9061225f565b60405180910390fd5b60016000815480929190610dcb90611ef7565b9190505550600080600060015481526020019081526020016000209050338160000160006101000a81548173ffffffffffffffffffffffffffffffffffffffff021916908373ffffffffffffffffffffffffffffffffffffffff16021790555086816002019081610e3c919061242b565b5085816003019081610e4e919061242b565b5084816004018190555083816005018190555087816001018190555060005b8351811015610ef7576040518060400160405280858381518110610e9457610e93611ec8565b5b602002602001015181526020016000815250826006016000600184610eb991906124fd565b81526020019081526020016000206000820151816000019081610edc919061242b565b50602082015181600101559050508080600101915050610e6d565b508251816007018190555060005b8251811015610f5b57828181518110610f2157610f20611ec8565b5b6020026020010151826008016000600184610f3c91906124fd565b8152602001908152602001600020819055508080600101915050610f05565b50815181600901819055505050505050505050565b6060806060806060600080600190505b6001548111611013576000600190505b600080838152602001908152602001600020600901548111610fff578860008084815260200190815260200160002060080160008381526020019081526020016000205403610fec578280610fe490611ef7565b935050610fff565b8080610ff790611ef7565b915050610f90565b50808061100b90611ef7565b915050610f80565b508067ffffffffffffffff81111561102e5761102d6119b3565b5b60405190808252806020026020018201604052801561105c5781602001602082028036833780820191505090505b5095508067ffffffffffffffff811115611079576110786119b3565b5b6040519080825280602002602001820160405280156110ac57816020015b60608152602001906001900390816110975790505b5094508067ffffffffffffffff8111156110c9576110c86119b3565b5b6040519080825280602002602001820160405280156110fc57816020015b60608152602001906001900390816110e75790505b5093508067ffffffffffffffff811115611119576111186119b3565b5b6040519080825280602002602001820160405280156111475781602001602082028036833780820191505090505b5092508067ffffffffffffffff811115611164576111636119b3565b5b6040519080825280602002602001820160405280156111925781602001602082028036833780820191505090505b509150600080600190505b6001548111611432576000600190505b60008083815260200190815260200160002060090154811161141e57896000808481526020019081526020016000206008016000838152602001908152602001600020540361140b578189848151811061120a57611209611ec8565b5b602002602001018181525050600080838152602001908152602001600020600201805461123690611e34565b80601f016020809104026020016040519081016040528092919081815260200182805461126290611e34565b80156112af5780601f10611284576101008083540402835291602001916112af565b820191906000526020600020905b81548152906001019060200180831161129257829003601f168201915b50505050508884815181106112c7576112c6611ec8565b5b602002602001018190525060008083815260200190815260200160002060030180546112f290611e34565b80601f016020809104026020016040519081016040528092919081815260200182805461131e90611e34565b801561136b5780601f106113405761010080835404028352916020019161136b565b820191906000526020600020905b81548152906001019060200180831161134e57829003601f168201915b505050505087848151811061138357611382611ec8565b5b6020026020010181905250600080838152602001908152602001600020600401548684815181106113b7576113b6611ec8565b5b602002602001018181525050600080838152602001908152602001600020600501548584815181106113ec576113eb611ec8565b5b602002602001018181525050828061140390611ef7565b93505061141e565b808061141690611ef7565b9150506111ad565b50808061142a90611ef7565b91505061119d565b50505091939590929450565b6000819050919050565b6114518161143e565b82525050565b600060208201905061146c6000830184611448565b92915050565b6000604051905090565b600080fd5b600080fd5b61148f8161143e565b811461149a57600080fd5b50565b6000813590506114ac81611486565b92915050565b6000602082840312156114c8576114c761147c565b5b60006114d68482850161149d565b91505092915050565b600081519050919050565b600082825260208201905092915050565b60005b838110156115195780820151818401526020810190506114fe565b60008484015250505050565b6000601f19601f8301169050919050565b6000611541826114df565b61154b81856114ea565b935061155b8185602086016114fb565b61156481611525565b840191505092915050565b600081519050919050565b600082825260208201905092915050565b6000819050602082019050919050565b600082825260208201905092915050565b60006115b7826114df565b6115c1818561159b565b93506115d18185602086016114fb565b6115da81611525565b840191505092915050565b60006115f183836115ac565b905092915050565b6000602082019050919050565b60006116118261156f565b61161b818561157a565b93508360208202850161162d8561158b565b8060005b85811015611669578484038952815161164a85826115e5565b9450611655836115f9565b925060208a01995050600181019050611631565b50829750879550505050505092915050565b600060a08201905081810360008301526116958188611536565b905081810360208301526116a98187611536565b90506116b86040830186611448565b6116c56060830185611448565b81810360808301526116d78184611606565b90509695505050505050565b6000819050919050565b6116f6816116e3565b811461170157600080fd5b50565b600081359050611713816116ed565b92915050565b60006020828403121561172f5761172e61147c565b5b600061173d84828501611704565b91505092915050565b600081519050919050565b600082825260208201905092915050565b6000819050602082019050919050565b61177b8161143e565b82525050565b600061178d8383611772565b60208301905092915050565b6000602082019050919050565b60006117b182611746565b6117bb8185611751565b93506117c683611762565b8060005b838110156117f75781516117de8882611781565b97506117e983611799565b9250506001810190506117ca565b5085935050505092915050565b600060a082019050818103600083015261181e81886117a6565b905081810360208301526118328187611606565b905081810360408301526118468186611606565b9050818103606083015261185a81856117a6565b9050818103608083015261186e81846117a6565b90509695505050505050565b6000806000606084860312156118935761189261147c565b5b60006118a18682870161149d565b93505060206118b28682870161149d565b92505060406118c386828701611704565b9150509250925092565b600073ffffffffffffffffffffffffffffffffffffffff82169050919050565b60006118f8826118cd565b9050919050565b611908816118ed565b82525050565b611917816116e3565b82525050565b600061010082019050611933600083018b6118ff565b611940602083018a61190e565b81810360408301526119528189611536565b905081810360608301526119668188611536565b90506119756080830187611448565b61198260a0830186611448565b61198f60c0830185611448565b61199c60e0830184611448565b9998505050505050505050565b600080fd5b600080fd5b7f4e487b7100000000000000000000000000000000000000000000000000000000600052604160045260246000fd5b6119eb82611525565b810181811067ffffffffffffffff82111715611a0a57611a096119b3565b5b80604052505050565b6000611a1d611472565b9050611a2982826119e2565b919050565b600067ffffffffffffffff821115611a4957611a486119b3565b5b611a5282611525565b9050602081019050919050565b82818337600083830152505050565b6000611a81611a7c84611a2e565b611a13565b905082815260208101848484011115611a9d57611a9c6119ae565b5b611aa8848285611a5f565b509392505050565b600082601f830112611ac557611ac46119a9565b5b8135611ad5848260208601611a6e565b91505092915050565b600067ffffffffffffffff821115611af957611af86119b3565b5b602082029050602081019050919050565b600080fd5b6000611b22611b1d84611ade565b611a13565b90508083825260208201905060208402830185811115611b4557611b44611b0a565b5b835b81811015611b8c57803567ffffffffffffffff811115611b6a57611b696119a9565b5b808601611b778982611ab0565b85526020850194505050602081019050611b47565b5050509392505050565b600082601f830112611bab57611baa6119a9565b5b8135611bbb848260208601611b0f565b91505092915050565b600067ffffffffffffffff821115611bdf57611bde6119b3565b5b602082029050602081019050919050565b6000611c03611bfe84611bc4565b611a13565b90508083825260208201905060208402830185811115611c2657611c25611b0a565b5b835b81811015611c4f5780611c3b8882611704565b845260208401935050602081019050611c28565b5050509392505050565b600082601f830112611c6e57611c6d6119a9565b5b8135611c7e848260208601611bf0565b91505092915050565b600080600080600080600060e0888a031215611ca657611ca561147c565b5b6000611cb48a828b01611704565b975050602088013567ffffffffffffffff811115611cd557611cd4611481565b5b611ce18a828b01611ab0565b965050604088013567ffffffffffffffff811115611d0257611d01611481565b5b611d0e8a828b01611ab0565b9550506060611d1f8a828b0161149d565b9450506080611d308a828b0161149d565b93505060a088013567ffffffffffffffff811115611d5157611d50611481565b5b611d5d8a828b01611b96565b92505060c088013567ffffffffffffffff811115611d7e57611d7d611481565b5b611d8a8a828b01611c59565b91505092959891949750929550565b7f496e76616c696420706f6c6c2049440000000000000000000000000000000000600082015250565b6000611dcf600f836114ea565b9150611dda82611d99565b602082019050919050565b60006020820190508181036000830152611dfe81611dc2565b9050919050565b7f4e487b7100000000000000000000000000000000000000000000000000000000600052602260045260246000fd5b60006002820490506001821680611e4c57607f821691505b602082108103611e5f57611e5e611e05565b5b50919050565b7f4e487b7100000000000000000000000000000000000000000000000000000000600052601160045260246000fd5b6000611e9f8261143e565b9150611eaa8361143e565b9250828203905081811115611ec257611ec1611e65565b5b92915050565b7f4e487b7100000000000000000000000000000000000000000000000000000000600052603260045260246000fd5b6000611f028261143e565b91507fffffffffffffffffffffffffffffffffffffffffffffffffffffffffffffffff8203611f3457611f33611e65565b5b600182019050919050565b7f506f6c6c206e6f74206163746976650000000000000000000000000000000000600082015250565b6000611f75600f836114ea565b9150611f8082611f3f565b602082019050919050565b60006020820190508181036000830152611fa481611f68565b9050919050565b7f416c726561647920766f74656400000000000000000000000000000000000000600082015250565b6000611fe1600d836114ea565b9150611fec82611fab565b602082019050919050565b6000602082019050818103600083015261201081611fd4565b9050919050565b7f4e6f742061207265676973746572656420766f74657200000000000000000000600082015250565b600061204d6016836114ea565b915061205882612017565b602082019050919050565b6000602082019050818103600083015261207c81612040565b9050919050565b7f43616e64696461746520646f6573206e6f742065786973740000000000000000600082015250565b60006120b96018836114ea565b91506120c482612083565b602082019050919050565b600060208201905081810360008301526120e8816120ac565b9050919050565b7f53746172742074696d65206d757374206265206265666f726520656e6420746960008201527f6d65000000000000000000000000000000000000000000000000000000000000602082015250565b600061214b6022836114ea565b9150612156826120ef565b604082019050919050565b6000602082019050818103600083015261217a8161213e565b9050919050565b7f4174206c65617374206f6e652063616e6469646174652069732072657175697260008201527f6564000000000000000000000000000000000000000000000000000000000000602082015250565b60006121dd6022836114ea565b91506121e882612181565b604082019050919050565b6000602082019050818103600083015261220c816121d0565b9050919050565b7f4174206c65617374206f6e6520766f7465722069732072657175697265640000600082015250565b6000612249601e836114ea565b915061225482612213565b602082019050919050565b600060208201905081810360008301526122788161223c565b9050919050565b60008190508160005260206000209050919050565b60006020601f8301049050919050565b600082821b905092915050565b6000600883026122e17fffffffffffffffffffffffffffffffffffffffffffffffffffffffffffffffff826122a4565b6122eb86836122a4565b95508019841693508086168417925050509392505050565b6000819050919050565b600061232861232361231e8461143e565b612303565b61143e565b9050919050565b6000819050919050565b6123428361230d565b61235661234e8261232f565b8484546122b1565b825550505050565b600090565b61236b61235e565b612376818484612339565b505050565b5b8181101561239a5761238f600082612363565b60018101905061237c565b5050565b601f8211156123df576123b08161227f565b6123b984612294565b810160208510156123c8578190505b6123dc6123d485612294565b83018261237b565b50505b505050565b600082821c905092915050565b6000612402600019846008026123e4565b1980831691505092915050565b600061241b83836123f1565b9150826002028217905092915050565b612434826114df565b67ffffffffffffffff81111561244d5761244c6119b3565b5b6124578254611e34565b61246282828561239e565b600060209050601f8311600181146124955760008415612483578287015190505b61248d858261240f565b8655506124f5565b601f1984166124a38661227f565b60005b828110156124cb578489015182556001820191506020850194506020810190506124a6565b868310156124e857848901516124e4601f8916826123f1565b8355505b6001600288020188555050505b505050505050565b60006125088261143e565b91506125138361143e565b925082820190508082111561252b5761252a611e65565b5b9291505056fea26469706673582212208f8e171955bf07d1c3d3c3a1c106f5a33f0b01b6d6bc6f8dc22caeddf15e484b64736f6c634300081c0033",
          "opcodes": "PUSH1 0x80 PUSH1 0x40 MSTORE CALLVALUE DUP1 ISZERO PUSH1 0xF JUMPI PUSH1 0x0 DUP1 REVERT JUMPDEST POP PUSH2 0x2567 DUP1 PUSH2 0x1F PUSH1 0x0 CODECOPY PUSH1 0x0 RETURN INVALID PUSH1 0x80 PUSH1 0x40 MSTORE CALLVALUE DUP1 ISZERO PUSH2 0x10 JUMPI PUSH1 0x0 DUP1 REVERT JUMPDEST POP PUSH1 0x4 CALLDATASIZE LT PUSH2 0x88 JUMPI PUSH1 0x0 CALLDATALOAD PUSH1 0xE0 SHR DUP1 PUSH4 0x9207891D GT PUSH2 0x5B JUMPI DUP1 PUSH4 0x9207891D EQ PUSH2 0x12F JUMPI DUP1 PUSH4 0xAC2F0074 EQ PUSH2 0x14D JUMPI DUP1 PUSH4 0xC7F16434 EQ PUSH2 0x184 JUMPI DUP1 PUSH4 0xFA24A7B3 EQ PUSH2 0x1A0 JUMPI PUSH2 0x88 JUMP JUMPDEST DUP1 PUSH4 0x11A52746 EQ PUSH2 0x8D JUMPI DUP1 PUSH4 0x1A8CBCAA EQ PUSH2 0xAB JUMPI DUP1 PUSH4 0x87612416 EQ PUSH2 0xDF JUMPI DUP1 PUSH4 0x8C881EEB EQ PUSH2 0x113 JUMPI JUMPDEST PUSH1 0x0 DUP1 REVERT JUMPDEST PUSH2 0x95 PUSH2 0x1D4 JUMP JUMPDEST PUSH1 0x40 MLOAD PUSH2 0xA2 SWAP2 SWAP1 PUSH2 0x1457 JUMP JUMPDEST PUSH1 0x40 MLOAD DUP1 SWAP2 SUB SWAP1 RETURN JUMPDEST PUSH2 0xC5 PUSH1 0x4 DUP1 CALLDATASIZE SUB DUP2 ADD SWAP1 PUSH2 0xC0 SWAP2 SWAP1 PUSH2 0x14B2 JUMP JUMPDEST PUSH2 0x1DE JUMP JUMPDEST PUSH1 0x40 MLOAD PUSH2 0xD6 SWAP6 SWAP5 SWAP4 SWAP3 SWAP2 SWAP1 PUSH2 0x167B JUMP JUMPDEST PUSH1 0x40 MLOAD DUP1 SWAP2 SUB SWAP1 RETURN JUMPDEST PUSH2 0xF9 PUSH1 0x4 DUP1 CALLDATASIZE SUB DUP2 ADD SWAP1 PUSH2 0xF4 SWAP2 SWAP1 PUSH2 0x1719 JUMP JUMPDEST PUSH2 0x4D1 JUMP JUMPDEST PUSH1 0x40 MLOAD PUSH2 0x10A SWAP6 SWAP5 SWAP4 SWAP3 SWAP2 SWAP1 PUSH2 0x1804 JUMP JUMPDEST PUSH1 0x40 MLOAD DUP1 SWAP2 SUB SWAP1 RETURN JUMPDEST PUSH2 0x12D PUSH1 0x4 DUP1 CALLDATASIZE SUB DUP2 ADD SWAP1 PUSH2 0x128 SWAP2 SWAP1 PUSH2 0x187A JUMP JUMPDEST PUSH2 0x907 JUMP JUMPDEST STOP JUMPDEST PUSH2 0x137 PUSH2 0xB70 JUMP JUMPDEST PUSH1 0x40 MLOAD PUSH2 0x144 SWAP2 SWAP1 PUSH2 0x1457 JUMP JUMPDEST PUSH1 0x40 MLOAD DUP1 SWAP2 SUB SWAP1 RETURN JUMPDEST PUSH2 0x167 PUSH1 0x4 DUP1 CALLDATASIZE SUB DUP2 ADD SWAP1 PUSH2 0x162 SWAP2 SWAP1 PUSH2 0x14B2 JUMP JUMPDEST PUSH2 0xB76 JUMP JUMPDEST PUSH1 0x40 MLOAD PUSH2 0x17B SWAP9 SWAP8 SWAP7 SWAP6 SWAP5 SWAP4 SWAP3 SWAP2 SWAP1 PUSH2 0x191D JUMP JUMPDEST PUSH1 0x40 MLOAD DUP1 SWAP2 SUB SWAP1 RETURN JUMPDEST PUSH2 0x19E PUSH1 0x4 DUP1 CALLDATASIZE SUB DUP2 ADD SWAP1 PUSH2 0x199 SWAP2 SWAP1 PUSH2 0x1C87 JUMP JUMPDEST PUSH2 0xCEE JUMP JUMPDEST STOP JUMPDEST PUSH2 0x1BA PUSH1 0x4 DUP1 CALLDATASIZE SUB DUP2 ADD SWAP1 PUSH2 0x1B5 SWAP2 SWAP1 PUSH2 0x1719 JUMP JUMPDEST PUSH2 0xF70 JUMP JUMPDEST PUSH1 0x40 MLOAD PUSH2 0x1CB SWAP6 SWAP5 SWAP4 SWAP3 SWAP2 SWAP1 PUSH2 0x1804 JUMP JUMPDEST PUSH1 0x40 MLOAD DUP1 SWAP2 SUB SWAP1 RETURN JUMPDEST PUSH1 0x0 PUSH1 0x1 SLOAD SWAP1 POP SWAP1 JUMP JUMPDEST PUSH1 0x60 DUP1 PUSH1 0x0 DUP1 PUSH1 0x60 PUSH1 0x0 DUP7 GT DUP1 ISZERO PUSH2 0x1F8 JUMPI POP PUSH1 0x1 SLOAD DUP7 GT ISZERO JUMPDEST PUSH2 0x237 JUMPI PUSH1 0x40 MLOAD PUSH32 0x8C379A000000000000000000000000000000000000000000000000000000000 DUP2 MSTORE PUSH1 0x4 ADD PUSH2 0x22E SWAP1 PUSH2 0x1DE5 JUMP JUMPDEST PUSH1 0x40 MLOAD DUP1 SWAP2 SUB SWAP1 REVERT JUMPDEST PUSH1 0x0 DUP1 PUSH1 0x0 DUP9 DUP2 MSTORE PUSH1 0x20 ADD SWAP1 DUP2 MSTORE PUSH1 0x20 ADD PUSH1 0x0 KECCAK256 SWAP1 POP DUP1 PUSH1 0x7 ADD SLOAD PUSH8 0xFFFFFFFFFFFFFFFF DUP2 GT ISZERO PUSH2 0x26B JUMPI PUSH2 0x26A PUSH2 0x19B3 JUMP JUMPDEST JUMPDEST PUSH1 0x40 MLOAD SWAP1 DUP1 DUP3 MSTORE DUP1 PUSH1 0x20 MUL PUSH1 0x20 ADD DUP3 ADD PUSH1 0x40 MSTORE DUP1 ISZERO PUSH2 0x29E JUMPI DUP2 PUSH1 0x20 ADD JUMPDEST PUSH1 0x60 DUP2 MSTORE PUSH1 0x20 ADD SWAP1 PUSH1 0x1 SWAP1 SUB SWAP1 DUP2 PUSH2 0x289 JUMPI SWAP1 POP JUMPDEST POP SWAP2 POP PUSH1 0x0 PUSH1 0x1 SWAP1 POP JUMPDEST DUP2 PUSH1 0x7 ADD SLOAD DUP2 GT PUSH2 0x391 JUMPI DUP2 PUSH1 0x6 ADD PUSH1 0x0 DUP3 DUP2 MSTORE PUSH1 0x20 ADD SWAP1 DUP2 MSTORE PUSH1 0x20 ADD PUSH1 0x0 KECCAK256 PUSH1 0x0 ADD DUP1 SLOAD PUSH2 0x2D6 SWAP1 PUSH2 0x1E34 JUMP JUMPDEST DUP1 PUSH1 0x1F ADD PUSH1 0x20 DUP1 SWAP2 DIV MUL PUSH1 0x20 ADD PUSH1 0x40 MLOAD SWAP1 DUP2 ADD PUSH1 0x40 MSTORE DUP1 SWAP3 SWAP2 SWAP1 DUP2 DUP2 MSTORE PUSH1 0x20 ADD DUP3 DUP1 SLOAD PUSH2 0x302 SWAP1 PUSH2 0x1E34 JUMP JUMPDEST DUP1 ISZERO PUSH2 0x34F JUMPI DUP1 PUSH1 0x1F LT PUSH2 0x324 JUMPI PUSH2 0x100 DUP1 DUP4 SLOAD DIV MUL DUP4 MSTORE SWAP2 PUSH1 0x20 ADD SWAP2 PUSH2 0x34F JUMP JUMPDEST DUP3 ADD SWAP2 SWAP1 PUSH1 0x0 MSTORE PUSH1 0x20 PUSH1 0x0 KECCAK256 SWAP1 JUMPDEST DUP2 SLOAD DUP2 MSTORE SWAP1 PUSH1 0x1 ADD SWAP1 PUSH1 0x20 ADD DUP1 DUP4 GT PUSH2 0x332 JUMPI DUP3 SWAP1 SUB PUSH1 0x1F AND DUP3 ADD SWAP2 JUMPDEST POP POP POP POP POP DUP4 PUSH1 0x1 DUP4 PUSH2 0x362 SWAP2 SWAP1 PUSH2 0x1E94 JUMP JUMPDEST DUP2 MLOAD DUP2 LT PUSH2 0x373 JUMPI PUSH2 0x372 PUSH2 0x1EC8 JUMP JUMPDEST JUMPDEST PUSH1 0x20 MUL PUSH1 0x20 ADD ADD DUP2 SWAP1 MSTORE POP DUP1 DUP1 PUSH2 0x389 SWAP1 PUSH2 0x1EF7 JUMP JUMPDEST SWAP2 POP POP PUSH2 0x2A8 JUMP JUMPDEST POP DUP1 PUSH1 0x2 ADD DUP2 PUSH1 0x3 ADD DUP3 PUSH1 0x4 ADD SLOAD DUP4 PUSH1 0x5 ADD SLOAD DUP6 DUP5 DUP1 SLOAD PUSH2 0x3B1 SWAP1 PUSH2 0x1E34 JUMP JUMPDEST DUP1 PUSH1 0x1F ADD PUSH1 0x20 DUP1 SWAP2 DIV MUL PUSH1 0x20 ADD PUSH1 0x40 MLOAD SWAP1 DUP2 ADD PUSH1 0x40 MSTORE DUP1 SWAP3 SWAP2 SWAP1 DUP2 DUP2 MSTORE PUSH1 0x20 ADD DUP3 DUP1 SLOAD PUSH2 0x3DD SWAP1 PUSH2 0x1E34 JUMP JUMPDEST DUP1 ISZERO PUSH2 0x42A JUMPI DUP1 PUSH1 0x1F LT PUSH2 0x3FF JUMPI PUSH2 0x100 DUP1 DUP4 SLOAD DIV MUL DUP4 MSTORE SWAP2 PUSH1 0x20 ADD SWAP2 PUSH2 0x42A JUMP JUMPDEST DUP3 ADD SWAP2 SWAP1 PUSH1 0x0 MSTORE PUSH1 0x20 PUSH1 0x0 KECCAK256 SWAP1 JUMPDEST DUP2 SLOAD DUP2 MSTORE SWAP1 PUSH1 0x1 ADD SWAP1 PUSH1 0x20 ADD DUP1 DUP4 GT PUSH2 0x40D JUMPI DUP3 SWAP1 SUB PUSH1 0x1F AND DUP3 ADD SWAP2 JUMPDEST POP POP POP POP POP SWAP5 POP DUP4 DUP1 SLOAD PUSH2 0x43D SWAP1 PUSH2 0x1E34 JUMP JUMPDEST DUP1 PUSH1 0x1F ADD PUSH1 0x20 DUP1 SWAP2 DIV MUL PUSH1 0x20 ADD PUSH1 0x40 MLOAD SWAP1 DUP2 ADD PUSH1 0x40 MSTORE DUP1 SWAP3 SWAP2 SWAP1 DUP2 DUP2 MSTORE PUSH1 0x20 ADD DUP3 DUP1 SLOAD PUSH2 0x469 SWAP1 PUSH2 0x1E34 JUMP JUMPDEST DUP1 ISZERO PUSH2 0x4B6 JUMPI DUP1 PUSH1 0x1F LT PUSH2 0x48B JUMPI PUSH2 0x100 DUP1 DUP4 SLOAD DIV MUL DUP4 MSTORE SWAP2 PUSH1 0x20 ADD SWAP2 PUSH2 0x4B6 JUMP JUMPDEST DUP3 ADD SWAP2 SWAP1 PUSH1 0x0 MSTORE PUSH1 0x20 PUSH1 0x0 KECCAK256 SWAP1 JUMPDEST DUP2 SLOAD DUP2 MSTORE SWAP1 PUSH1 0x1 ADD SWAP1 PUSH1 0x20 ADD DUP1 DUP4 GT PUSH2 0x499 JUMPI DUP3 SWAP1 SUB PUSH1 0x1F AND DUP3 ADD SWAP2 JUMPDEST POP POP POP POP POP SWAP4 POP SWAP6 POP SWAP6 POP SWAP6 POP SWAP6 POP SWAP6 POP POP SWAP2 SWAP4 SWAP6 SWAP1 SWAP3 SWAP5 POP JUMP JUMPDEST PUSH1 0x60 DUP1 PUSH1 0x60 DUP1 PUSH1 0x60 PUSH1 0x0 DUP1 PUSH1 0x1 SWAP1 POP JUMPDEST PUSH1 0x1 SLOAD DUP2 GT PUSH2 0x528 JUMPI DUP8 PUSH1 0x0 DUP1 DUP4 DUP2 MSTORE PUSH1 0x20 ADD SWAP1 DUP2 MSTORE PUSH1 0x20 ADD PUSH1 0x0 KECCAK256 PUSH1 0x1 ADD SLOAD SUB PUSH2 0x515 JUMPI DUP2 DUP1 PUSH2 0x511 SWAP1 PUSH2 0x1EF7 JUMP JUMPDEST SWAP3 POP POP JUMPDEST DUP1 DUP1 PUSH2 0x520 SWAP1 PUSH2 0x1EF7 JUMP JUMPDEST SWAP2 POP POP PUSH2 0x4E1 JUMP JUMPDEST POP DUP1 PUSH8 0xFFFFFFFFFFFFFFFF DUP2 GT ISZERO PUSH2 0x543 JUMPI PUSH2 0x542 PUSH2 0x19B3 JUMP JUMPDEST JUMPDEST PUSH1 0x40 MLOAD SWAP1 DUP1 DUP3 MSTORE DUP1 PUSH1 0x20 MUL PUSH1 0x20 ADD DUP3 ADD PUSH1 0x40 MSTORE DUP1 ISZERO PUSH2 0x571 JUMPI DUP2 PUSH1 0x20 ADD PUSH1 0x20 DUP3 MUL DUP1 CALLDATASIZE DUP4 CALLDATACOPY DUP1 DUP3 ADD SWAP2 POP POP SWAP1 POP JUMPDEST POP SWAP6 POP DUP1 PUSH8 0xFFFFFFFFFFFFFFFF DUP2 GT ISZERO PUSH2 0x58E JUMPI PUSH2 0x58D PUSH2 0x19B3 JUMP JUMPDEST JUMPDEST PUSH1 0x40 MLOAD SWAP1 DUP1 DUP3 MSTORE DUP1 PUSH1 0x20 MUL PUSH1 0x20 ADD DUP3 ADD PUSH1 0x40 MSTORE DUP1 ISZERO PUSH2 0x5C1 JUMPI DUP2 PUSH1 0x20 ADD JUMPDEST PUSH1 0x60 DUP2 MSTORE PUSH1 0x20 ADD SWAP1 PUSH1 0x1 SWAP1 SUB SWAP1 DUP2 PUSH2 0x5AC JUMPI SWAP1 POP JUMPDEST POP SWAP5 POP DUP1 PUSH8 0xFFFFFFFFFFFFFFFF DUP2 GT ISZERO PUSH2 0x5DE JUMPI PUSH2 0x5DD PUSH2 0x19B3 JUMP JUMPDEST JUMPDEST PUSH1 0x40 MLOAD SWAP1 DUP1 DUP3 MSTORE DUP1 PUSH1 0x20 MUL PUSH1 0x20 ADD DUP3 ADD PUSH1 0x40 MSTORE DUP1 ISZERO PUSH2 0x611 JUMPI DUP2 PUSH1 0x20 ADD JUMPDEST PUSH1 0x60 DUP2 MSTORE PUSH1 0x20 ADD SWAP1 PUSH1 0x1 SWAP1 SUB SWAP1 DUP2 PUSH2 0x5FC JUMPI SWAP1 POP JUMPDEST POP SWAP4 POP DUP1 PUSH8 0xFFFFFFFFFFFFFFFF DUP2 GT ISZERO PUSH2 0x62E JUMPI PUSH2 0x62D PUSH2 0x19B3 JUMP JUMPDEST JUMPDEST PUSH1 0x40 MLOAD SWAP1 DUP1 DUP3 MSTORE DUP1 PUSH1 0x20 MUL PUSH1 0x20 ADD DUP3 ADD PUSH1 0x40 MSTORE DUP1 ISZERO PUSH2 0x65C JUMPI DUP2 PUSH1 0x20 ADD PUSH1 0x20 DUP3 MUL DUP1 CALLDATASIZE DUP4 CALLDATACOPY DUP1 DUP3 ADD SWAP2 POP POP SWAP1 POP JUMPDEST POP SWAP3 POP DUP1 PUSH8 0xFFFFFFFFFFFFFFFF DUP2 GT ISZERO PUSH2 0x679 JUMPI PUSH2 0x678 PUSH2 0x19B3 JUMP JUMPDEST JUMPDEST PUSH1 0x40 MLOAD SWAP1 DUP1 DUP3 MSTORE DUP1 PUSH1 0x20 MUL PUSH1 0x20 ADD DUP3 ADD PUSH1 0x40 MSTORE DUP1 ISZERO PUSH2 0x6A7 JUMPI DUP2 PUSH1 0x20 ADD PUSH1 0x20 DUP3 MUL DUP1 CALLDATASIZE DUP4 CALLDATACOPY DUP1 DUP3 ADD SWAP2 POP POP SWAP1 POP JUMPDEST POP SWAP2 POP PUSH1 0x0 DUP1 PUSH1 0x1 SWAP1 POP JUMPDEST PUSH1 0x1 SLOAD DUP2 GT PUSH2 0x8FB JUMPI DUP9 PUSH1 0x0 DUP1 DUP4 DUP2 MSTORE PUSH1 0x20 ADD SWAP1 DUP2 MSTORE PUSH1 0x20 ADD PUSH1 0x0 KECCAK256 PUSH1 0x1 ADD SLOAD SUB PUSH2 0x8E8 JUMPI DUP1 DUP9 DUP4 DUP2 MLOAD DUP2 LT PUSH2 0x6EB JUMPI PUSH2 0x6EA PUSH2 0x1EC8 JUMP JUMPDEST JUMPDEST PUSH1 0x20 MUL PUSH1 0x20 ADD ADD DUP2 DUP2 MSTORE POP POP PUSH1 0x0 DUP1 DUP3 DUP2 MSTORE PUSH1 0x20 ADD SWAP1 DUP2 MSTORE PUSH1 0x20 ADD PUSH1 0x0 KECCAK256 PUSH1 0x2 ADD DUP1 SLOAD PUSH2 0x717 SWAP1 PUSH2 0x1E34 JUMP JUMPDEST DUP1 PUSH1 0x1F ADD PUSH1 0x20 DUP1 SWAP2 DIV MUL PUSH1 0x20 ADD PUSH1 0x40 MLOAD SWAP1 DUP2 ADD PUSH1 0x40 MSTORE DUP1 SWAP3 SWAP2 SWAP1 DUP2 DUP2 MSTORE PUSH1 0x20 ADD DUP3 DUP1 SLOAD PUSH2 0x743 SWAP1 PUSH2 0x1E34 JUMP JUMPDEST DUP1 ISZERO PUSH2 0x790 JUMPI DUP1 PUSH1 0x1F LT PUSH2 0x765 JUMPI PUSH2 0x100 DUP1 DUP4 SLOAD DIV MUL DUP4 MSTORE SWAP2 PUSH1 0x20 ADD SWAP2 PUSH2 0x790 JUMP JUMPDEST DUP3 ADD SWAP2 SWAP1 PUSH1 0x0 MSTORE PUSH1 0x20 PUSH1 0x0 KECCAK256 SWAP1 JUMPDEST DUP2 SLOAD DUP2 MSTORE SWAP1 PUSH1 0x1 ADD SWAP1 PUSH1 0x20 ADD DUP1 DUP4 GT PUSH2 0x773 JUMPI DUP3 SWAP1 SUB PUSH1 0x1F AND DUP3 ADD SWAP2 JUMPDEST POP POP POP POP POP DUP8 DUP4 DUP2 MLOAD DUP2 LT PUSH2 0x7A8 JUMPI PUSH2 0x7A7 PUSH2 0x1EC8 JUMP JUMPDEST JUMPDEST PUSH1 0x20 MUL PUSH1 0x20 ADD ADD DUP2 SWAP1 MSTORE POP PUSH1 0x0 DUP1 DUP3 DUP2 MSTORE PUSH1 0x20 ADD SWAP1 DUP2 MSTORE PUSH1 0x20 ADD PUSH1 0x0 KECCAK256 PUSH1 0x3 ADD DUP1 SLOAD PUSH2 0x7D3 SWAP1 PUSH2 0x1E34 JUMP JUMPDEST DUP1 PUSH1 0x1F ADD PUSH1 0x20 DUP1 SWAP2 DIV MUL PUSH1 0x20 ADD PUSH1 0x40 MLOAD SWAP1 DUP2 ADD PUSH1 0x40 MSTORE DUP1 SWAP3 SWAP2 SWAP1 DUP2 DUP2 MSTORE PUSH1 0x20 ADD DUP3 DUP1 SLOAD PUSH2 0x7FF SWAP1 PUSH2 0x1E34 JUMP JUMPDEST DUP1 ISZERO PUSH2 0x84C JUMPI DUP1 PUSH1 0x1F LT PUSH2 0x821 JUMPI PUSH2 0x100 DUP1 DUP4 SLOAD DIV MUL DUP4 MSTORE SWAP2 PUSH1 0x20 ADD SWAP2 PUSH2 0x84C JUMP JUMPDEST DUP3 ADD SWAP2 SWAP1 PUSH1 0x0 MSTORE PUSH1 0x20 PUSH1 0x0 KECCAK256 SWAP1 JUMPDEST DUP2 SLOAD DUP2 MSTORE SWAP1 PUSH1 0x1 ADD SWAP1 PUSH1 0x20 ADD DUP1 DUP4 GT PUSH2 0x82F JUMPI DUP3 SWAP1 SUB PUSH1 0x1F AND DUP3 ADD SWAP2 JUMPDEST POP POP POP POP POP DUP7 DUP4 DUP2 MLOAD DUP2 LT PUSH2 0x864 JUMPI PUSH2 0x863 PUSH2 0x1EC8 JUMP JUMPDEST JUMPDEST PUSH1 0x20 MUL PUSH1 0x20 ADD ADD DUP2 SWAP1 MSTORE POP PUSH1 0x0 DUP1 DUP3 DUP2 MSTORE PUSH1 0x20 ADD SWAP1 DUP2 MSTORE PUSH1 0x20 ADD PUSH1 0x0 KECCAK256 PUSH1 0x4 ADD SLOAD DUP6 DUP4 DUP2 MLOAD DUP2 LT PUSH2 0x898 JUMPI PUSH2 0x897 PUSH2 0x1EC8 JUMP JUMPDEST JUMPDEST PUSH1 0x20 MUL PUSH1 0x20 ADD ADD DUP2 DUP2 MSTORE POP POP PUSH1 0x0 DUP1 DUP3 DUP2 MSTORE PUSH1 0x20 ADD SWAP1 DUP2 MSTORE PUSH1 0x20 ADD PUSH1 0x0 KECCAK256 PUSH1 0x5 ADD SLOAD DUP5 DUP4 DUP2 MLOAD DUP2 LT PUSH2 0x8CD JUMPI PUSH2 0x8CC PUSH2 0x1EC8 JUMP JUMPDEST JUMPDEST PUSH1 0x20 MUL PUSH1 0x20 ADD ADD DUP2 DUP2 MSTORE POP POP DUP2 DUP1 PUSH2 0x8E4 SWAP1 PUSH2 0x1EF7 JUMP JUMPDEST SWAP3 POP POP JUMPDEST DUP1 DUP1 PUSH2 0x8F3 SWAP1 PUSH2 0x1EF7 JUMP JUMPDEST SWAP2 POP POP PUSH2 0x6B2 JUMP JUMPDEST POP POP POP SWAP2 SWAP4 SWAP6 SWAP1 SWAP3 SWAP5 POP JUMP JUMPDEST PUSH1 0x0 DUP4 GT DUP1 ISZERO PUSH2 0x919 JUMPI POP PUSH1 0x1 SLOAD DUP4 GT ISZERO JUMPDEST PUSH2 0x958 JUMPI PUSH1 0x40 MLOAD PUSH32 0x8C379A000000000000000000000000000000000000000000000000000000000 DUP2 MSTORE PUSH1 0x4 ADD PUSH2 0x94F SWAP1 PUSH2 0x1DE5 JUMP JUMPDEST PUSH1 0x40 MLOAD DUP1 SWAP2 SUB SWAP1 REVERT JUMPDEST PUSH1 0x0 DUP1 PUSH1 0x0 DUP6 DUP2 MSTORE PUSH1 0x20 ADD SWAP1 DUP2 MSTORE PUSH1 0x20 ADD PUSH1 0x0 KECCAK256 SWAP1 POP DUP1 PUSH1 0x4 ADD SLOAD TIMESTAMP LT ISZERO DUP1 ISZERO PUSH2 0x986 JUMPI POP DUP1 PUSH1 0x5 ADD SLOAD TIMESTAMP GT ISZERO JUMPDEST PUSH2 0x9C5 JUMPI PUSH1 0x40 MLOAD PUSH32 0x8C379A000000000000000000000000000000000000000000000000000000000 DUP2 MSTORE PUSH1 0x4 ADD PUSH2 0x9BC SWAP1 PUSH2 0x1F8B JUMP JUMPDEST PUSH1 0x40 MLOAD DUP1 SWAP2 SUB SWAP1 REVERT JUMPDEST DUP1 PUSH1 0xA ADD PUSH1 0x0 DUP4 DUP2 MSTORE PUSH1 0x20 ADD SWAP1 DUP2 MSTORE PUSH1 0x20 ADD PUSH1 0x0 KECCAK256 PUSH1 0x0 SWAP1 SLOAD SWAP1 PUSH2 0x100 EXP SWAP1 DIV PUSH1 0xFF AND ISZERO PUSH2 0xA28 JUMPI PUSH1 0x40 MLOAD PUSH32 0x8C379A000000000000000000000000000000000000000000000000000000000 DUP2 MSTORE PUSH1 0x4 ADD PUSH2 0xA1F SWAP1 PUSH2 0x1FF7 JUMP JUMPDEST PUSH1 0x40 MLOAD DUP1 SWAP2 SUB SWAP1 REVERT JUMPDEST PUSH1 0x0 DUP1 PUSH1 0x1 SWAP1 POP JUMPDEST DUP3 PUSH1 0x9 ADD SLOAD DUP2 GT PUSH2 0xA73 JUMPI DUP4 DUP4 PUSH1 0x8 ADD PUSH1 0x0 DUP4 DUP2 MSTORE PUSH1 0x20 ADD SWAP1 DUP2 MSTORE PUSH1 0x20 ADD PUSH1 0x0 KECCAK256 SLOAD SUB PUSH2 0xA60 JUMPI PUSH1 0x1 SWAP2 POP PUSH2 0xA73 JUMP JUMPDEST DUP1 DUP1 PUSH2 0xA6B SWAP1 PUSH2 0x1EF7 JUMP JUMPDEST SWAP2 POP POP PUSH2 0xA30 JUMP JUMPDEST POP DUP1 PUSH2 0xAB4 JUMPI PUSH1 0x40 MLOAD PUSH32 0x8C379A000000000000000000000000000000000000000000000000000000000 DUP2 MSTORE PUSH1 0x4 ADD PUSH2 0xAAB SWAP1 PUSH2 0x2063 JUMP JUMPDEST PUSH1 0x40 MLOAD DUP1 SWAP2 SUB SWAP1 REVERT JUMPDEST PUSH1 0x0 DUP3 PUSH1 0x6 ADD PUSH1 0x0 DUP7 DUP2 MSTORE PUSH1 0x20 ADD SWAP1 DUP2 MSTORE PUSH1 0x20 ADD PUSH1 0x0 KECCAK256 SWAP1 POP PUSH1 0x0 DUP2 PUSH1 0x0 ADD DUP1 SLOAD PUSH2 0xADE SWAP1 PUSH2 0x1E34 JUMP JUMPDEST SWAP1 POP GT PUSH2 0xB20 JUMPI PUSH1 0x40 MLOAD PUSH32 0x8C379A000000000000000000000000000000000000000000000000000000000 DUP2 MSTORE PUSH1 0x4 ADD PUSH2 0xB17 SWAP1 PUSH2 0x20CF JUMP JUMPDEST PUSH1 0x40 MLOAD DUP1 SWAP2 SUB SWAP1 REVERT JUMPDEST PUSH1 0x1 DUP4 PUSH1 0xA ADD PUSH1 0x0 DUP7 DUP2 MSTORE PUSH1 0x20 ADD SWAP1 DUP2 MSTORE PUSH1 0x20 ADD PUSH1 0x0 KECCAK256 PUSH1 0x0 PUSH2 0x100 EXP DUP2 SLOAD DUP2 PUSH1 0xFF MUL NOT AND SWAP1 DUP4 ISZERO ISZERO MUL OR SWAP1 SSTORE POP DUP1 PUSH1 0x1 ADD PUSH1 0x0 DUP2 SLOAD DUP1 SWAP3 SWAP2 SWAP1 PUSH2 0xB63 SWAP1 PUSH2 0x1EF7 JUMP JUMPDEST SWAP2 SWAP1 POP SSTORE POP POP POP POP POP POP POP JUMP JUMPDEST PUSH1 0x1 SLOAD DUP2 JUMP JUMPDEST PUSH1 0x0 PUSH1 0x20 MSTORE DUP1 PUSH1 0x0 MSTORE PUSH1 0x40 PUSH1 0x0 KECCAK256 PUSH1 0x0 SWAP2 POP SWAP1 POP DUP1 PUSH1 0x0 ADD PUSH1 0x0 SWAP1 SLOAD SWAP1 PUSH2 0x100 EXP SWAP1 DIV PUSH20 0xFFFFFFFFFFFFFFFFFFFFFFFFFFFFFFFFFFFFFFFF AND SWAP1 DUP1 PUSH1 0x1 ADD SLOAD SWAP1 DUP1 PUSH1 0x2 ADD DUP1 SLOAD PUSH2 0xBC5 SWAP1 PUSH2 0x1E34 JUMP JUMPDEST DUP1 PUSH1 0x1F ADD PUSH1 0x20 DUP1 SWAP2 DIV MUL PUSH1 0x20 ADD PUSH1 0x40 MLOAD SWAP1 DUP2 ADD PUSH1 0x40 MSTORE DUP1 SWAP3 SWAP2 SWAP1 DUP2 DUP2 MSTORE PUSH1 0x20 ADD DUP3 DUP1 SLOAD PUSH2 0xBF1 SWAP1 PUSH2 0x1E34 JUMP JUMPDEST DUP1 ISZERO PUSH2 0xC3E JUMPI DUP1 PUSH1 0x1F LT PUSH2 0xC13 JUMPI PUSH2 0x100 DUP1 DUP4 SLOAD DIV MUL DUP4 MSTORE SWAP2 PUSH1 0x20 ADD SWAP2 PUSH2 0xC3E JUMP JUMPDEST DUP3 ADD SWAP2 SWAP1 PUSH1 0x0 MSTORE PUSH1 0x20 PUSH1 0x0 KECCAK256 SWAP1 JUMPDEST DUP2 SLOAD DUP2 MSTORE SWAP1 PUSH1 0x1 ADD SWAP1 PUSH1 0x20 ADD DUP1 DUP4 GT PUSH2 0xC21 JUMPI DUP3 SWAP1 SUB PUSH1 0x1F AND DUP3 ADD SWAP2 JUMPDEST POP POP POP POP POP SWAP1 DUP1 PUSH1 0x3 ADD DUP1 SLOAD PUSH2 0xC53 SWAP1 PUSH2 0x1E34 JUMP JUMPDEST DUP1 PUSH1 0x1F ADD PUSH1 0x20 DUP1 SWAP2 DIV MUL PUSH1 0x20 ADD PUSH1 0x40 MLOAD SWAP1 DUP2 ADD PUSH1 0x40 MSTORE DUP1 SWAP3 SWAP2 SWAP1 DUP2 DUP2 MSTORE PUSH1 0x20 ADD DUP3 DUP1 SLOAD PUSH2 0xC7F SWAP1 PUSH2 0x1E34 JUMP JUMPDEST DUP1 ISZERO PUSH2 0xCCC JUMPI DUP1 PUSH1 0x1F LT PUSH2 0xCA1 JUMPI PUSH2 0x100 DUP1 DUP4 SLOAD DIV MUL DUP4 MSTORE SWAP2 PUSH1 0x20 ADD SWAP2 PUSH2 0xCCC JUMP JUMPDEST DUP3 ADD SWAP2 SWAP1 PUSH1 0x0 MSTORE PUSH1 0x20 PUSH1 0x0 KECCAK256 SWAP1 JUMPDEST DUP2 SLOAD DUP2 MSTORE SWAP1 PUSH1 0x1 ADD SWAP1 PUSH1 0x20 ADD DUP1 DUP4 GT PUSH2 0xCAF JUMPI DUP3 SWAP1 SUB PUSH1 0x1F AND DUP3 ADD SWAP2 JUMPDEST POP POP POP POP POP SWAP1 DUP1 PUSH1 0x4 ADD SLOAD SWAP1 DUP1 PUSH1 0x5 ADD SLOAD SWAP1 DUP1 PUSH1 0x7 ADD SLOAD SWAP1 DUP1 PUSH1 0x9 ADD SLOAD SWAP1 POP DUP9 JUMP JUMPDEST DUP3 DUP5 LT PUSH2 0xD30 JUMPI PUSH1 0x40 MLOAD PUSH32 0x8C379A000000000000000000000000000000000000000000000000000000000 DUP2 MSTORE PUSH1 0x4 ADD PUSH2 0xD27 SWAP1 PUSH2 0x2161 JUMP JUMPDEST PUSH1 0x40 MLOAD DUP1 SWAP2 SUB SWAP1 REVERT JUMPDEST PUSH1 0x0 DUP3 MLOAD GT PUSH2 0xD74 JUMPI PUSH1 0x40 MLOAD PUSH32 0x8C379A000000000000000000000000000000000000000000000000000000000 DUP2 MSTORE PUSH1 0x4 ADD PUSH2 0xD6B SWAP1 PUSH2 0x21F3 JUMP JUMPDEST PUSH1 0x40 MLOAD DUP1 SWAP2 SUB SWAP1 REVERT JUMPDEST PUSH1 0x0 DUP2 MLOAD GT PUSH2 0xDB8 JUMPI PUSH1 0x40 MLOAD PUSH32 0x8C379A000000000000000000000000000000000000000000000000000000000 DUP2 MSTORE PUSH1 0x4 ADD PUSH2 0xDAF SWAP1 PUSH2 0x225F JUMP JUMPDEST PUSH1 0x40 MLOAD DUP1 SWAP2 SUB SWAP1 REVERT JUMPDEST PUSH1 0x1 PUSH1 0x0 DUP2 SLOAD DUP1 SWAP3 SWAP2 SWAP1 PUSH2 0xDCB SWAP1 PUSH2 0x1EF7 JUMP JUMPDEST SWAP2 SWAP1 POP SSTORE POP PUSH1 0x0 DUP1 PUSH1 0x0 PUSH1 0x1 SLOAD DUP2 MSTORE PUSH1 0x20 ADD SWAP1 DUP2 MSTORE PUSH1 0x20 ADD PUSH1 0x0 KECCAK256 SWAP1 POP CALLER DUP2 PUSH1 0x0 ADD PUSH1 0x0 PUSH2 0x100 EXP DUP2 SLOAD DUP2 PUSH20 0xFFFFFFFFFFFFFFFFFFFFFFFFFFFFFFFFFFFFFFFF MUL NOT AND SWAP1 DUP4 PUSH20 0xFFFFFFFFFFFFFFFFFFFFFFFFFFFFFFFFFFFFFFFF AND MUL OR SWAP1 SSTORE POP DUP7 DUP2 PUSH1 0x2 ADD SWAP1 DUP2 PUSH2 0xE3C SWAP2 SWAP1 PUSH2 0x242B JUMP JUMPDEST POP DUP6 DUP2 PUSH1 0x3 ADD SWAP1 DUP2 PUSH2 0xE4E SWAP2 SWAP1 PUSH2 0x242B JUMP JUMPDEST POP DUP5 DUP2 PUSH1 0x4 ADD DUP2 SWAP1 SSTORE POP DUP4 DUP2 PUSH1 0x5 ADD DUP2 SWAP1 SSTORE POP DUP8 DUP2 PUSH1 0x1 ADD DUP2 SWAP1 SSTORE POP PUSH1 0x0 JUMPDEST DUP4 MLOAD DUP2 LT ISZERO PUSH2 0xEF7 JUMPI PUSH1 0x40 MLOAD DUP1 PUSH1 0x40 ADD PUSH1 0x40 MSTORE DUP1 DUP6 DUP4 DUP2 MLOAD DUP2 LT PUSH2 0xE94 JUMPI PUSH2 0xE93 PUSH2 0x1EC8 JUMP JUMPDEST JUMPDEST PUSH1 0x20 MUL PUSH1 0x20 ADD ADD MLOAD DUP2 MSTORE PUSH1 0x20 ADD PUSH1 0x0 DUP2 MSTORE POP DUP3 PUSH1 0x6 ADD PUSH1 0x0 PUSH1 0x1 DUP5 PUSH2 0xEB9 SWAP2 SWAP1 PUSH2 0x24FD JUMP JUMPDEST DUP2 MSTORE PUSH1 0x20 ADD SWAP1 DUP2 MSTORE PUSH1 0x20 ADD PUSH1 0x0 KECCAK256 PUSH1 0x0 DUP3 ADD MLOAD DUP2 PUSH1 0x0 ADD SWAP1 DUP2 PUSH2 0xEDC SWAP2 SWAP1 PUSH2 0x242B JUMP JUMPDEST POP PUSH1 0x20 DUP3 ADD MLOAD DUP2 PUSH1 0x1 ADD SSTORE SWAP1 POP POP DUP1 DUP1 PUSH1 0x1 ADD SWAP2 POP POP PUSH2 0xE6D JUMP JUMPDEST POP DUP3 MLOAD DUP2 PUSH1 0x7 ADD DUP2 SWAP1 SSTORE POP PUSH1 0x0 JUMPDEST DUP3 MLOAD DUP2 LT ISZERO PUSH2 0xF5B JUMPI DUP3 DUP2 DUP2 MLOAD DUP2 LT PUSH2 0xF21 JUMPI PUSH2 0xF20 PUSH2 0x1EC8 JUMP JUMPDEST JUMPDEST PUSH1 0x20 MUL PUSH1 0x20 ADD ADD MLOAD DUP3 PUSH1 0x8 ADD PUSH1 0x0 PUSH1 0x1 DUP5 PUSH2 0xF3C SWAP2 SWAP1 PUSH2 0x24FD JUMP JUMPDEST DUP2 MSTORE PUSH1 0x20 ADD SWAP1 DUP2 MSTORE PUSH1 0x20 ADD PUSH1 0x0 KECCAK256 DUP2 SWAP1 SSTORE POP DUP1 DUP1 PUSH1 0x1 ADD SWAP2 POP POP PUSH2 0xF05 JUMP JUMPDEST POP DUP2 MLOAD DUP2 PUSH1 0x9 ADD DUP2 SWAP1 SSTORE POP POP POP POP POP POP POP POP POP JUMP JUMPDEST PUSH1 0x60 DUP1 PUSH1 0x60 DUP1 PUSH1 0x60 PUSH1 0x0 DUP1 PUSH1 0x1 SWAP1 POP JUMPDEST PUSH1 0x1 SLOAD DUP2 GT PUSH2 0x1013 JUMPI PUSH1 0x0 PUSH1 0x1 SWAP1 POP JUMPDEST PUSH1 0x0 DUP1 DUP4 DUP2 MSTORE PUSH1 0x20 ADD SWAP1 DUP2 MSTORE PUSH1 0x20 ADD PUSH1 0x0 KECCAK256 PUSH1 0x9 ADD SLOAD DUP2 GT PUSH2 0xFFF JUMPI DUP9 PUSH1 0x0 DUP1 DUP5 DUP2 MSTORE PUSH1 0x20 ADD SWAP1 DUP2 MSTORE PUSH1 0x20 ADD PUSH1 0x0 KECCAK256 PUSH1 0x8 ADD PUSH1 0x0 DUP4 DUP2 MSTORE PUSH1 0x20 ADD SWAP1 DUP2 MSTORE PUSH1 0x20 ADD PUSH1 0x0 KECCAK256 SLOAD SUB PUSH2 0xFEC JUMPI DUP3 DUP1 PUSH2 0xFE4 SWAP1 PUSH2 0x1EF7 JUMP JUMPDEST SWAP4 POP POP PUSH2 0xFFF JUMP JUMPDEST DUP1 DUP1 PUSH2 0xFF7 SWAP1 PUSH2 0x1EF7 JUMP JUMPDEST SWAP2 POP POP PUSH2 0xF90 JUMP JUMPDEST POP DUP1 DUP1 PUSH2 0x100B SWAP1 PUSH2 0x1EF7 JUMP JUMPDEST SWAP2 POP POP PUSH2 0xF80 JUMP JUMPDEST POP DUP1 PUSH8 0xFFFFFFFFFFFFFFFF DUP2 GT ISZERO PUSH2 0x102E JUMPI PUSH2 0x102D PUSH2 0x19B3 JUMP JUMPDEST JUMPDEST PUSH1 0x40 MLOAD SWAP1 DUP1 DUP3 MSTORE DUP1 PUSH1 0x20 MUL PUSH1 0x20 ADD DUP3 ADD PUSH1 0x40 MSTORE DUP1 ISZERO PUSH2 0x105C JUMPI DUP2 PUSH1 0x20 ADD PUSH1 0x20 DUP3 MUL DUP1 CALLDATASIZE DUP4 CALLDATACOPY DUP1 DUP3 ADD SWAP2 POP POP SWAP1 POP JUMPDEST POP SWAP6 POP DUP1 PUSH8 0xFFFFFFFFFFFFFFFF DUP2 GT ISZERO PUSH2 0x1079 JUMPI PUSH2 0x1078 PUSH2 0x19B3 JUMP JUMPDEST JUMPDEST PUSH1 0x40 MLOAD SWAP1 DUP1 DUP3 MSTORE DUP1 PUSH1 0x20 MUL PUSH1 0x20 ADD DUP3 ADD PUSH1 0x40 MSTORE DUP1 ISZERO PUSH2 0x10AC JUMPI DUP2 PUSH1 0x20 ADD JUMPDEST PUSH1 0x60 DUP2 MSTORE PUSH1 0x20 ADD SWAP1 PUSH1 0x1 SWAP1 SUB SWAP1 DUP2 PUSH2 0x1097 JUMPI SWAP1 POP JUMPDEST POP SWAP5 POP DUP1 PUSH8 0xFFFFFFFFFFFFFFFF DUP2 GT ISZERO PUSH2 0x10C9 JUMPI PUSH2 0x10C8 PUSH2 0x19B3 JUMP JUMPDEST JUMPDEST PUSH1 0x40 MLOAD SWAP1 DUP1 DUP3 MSTORE DUP1 PUSH1 0x20 MUL PUSH1 0x20 ADD DUP3 ADD PUSH1 0x40 MSTORE DUP1 ISZERO PUSH2 0x10FC JUMPI DUP2 PUSH1 0x20 ADD JUMPDEST PUSH1 0x60 DUP2 MSTORE PUSH1 0x20 ADD SWAP1 PUSH1 0x1 SWAP1 SUB SWAP1 DUP2 PUSH2 0x10E7 JUMPI SWAP1 POP JUMPDEST POP SWAP4 POP DUP1 PUSH8 0xFFFFFFFFFFFFFFFF DUP2 GT ISZERO PUSH2 0x1119 JUMPI PUSH2 0x1118 PUSH2 0x19B3 JUMP JUMPDEST JUMPDEST PUSH1 0x40 MLOAD SWAP1 DUP1 DUP3 MSTORE DUP1 PUSH1 0x20 MUL PUSH1 0x20 ADD DUP3 ADD PUSH1 0x40 MSTORE DUP1 ISZERO PUSH2 0x1147 JUMPI DUP2 PUSH1 0x20 ADD PUSH1 0x20 DUP3 MUL DUP1 CALLDATASIZE DUP4 CALLDATACOPY DUP1 DUP3 ADD SWAP2 POP POP SWAP1 POP JUMPDEST POP SWAP3 POP DUP1 PUSH8 0xFFFFFFFFFFFFFFFF DUP2 GT ISZERO PUSH2 0x1164 JUMPI PUSH2 0x1163 PUSH2 0x19B3 JUMP JUMPDEST JUMPDEST PUSH1 0x40 MLOAD SWAP1 DUP1 DUP3 MSTORE DUP1 PUSH1 0x20 MUL PUSH1 0x20 ADD DUP3 ADD PUSH1 0x40 MSTORE DUP1 ISZERO PUSH2 0x1192 JUMPI DUP2 PUSH1 0x20 ADD PUSH1 0x20 DUP3 MUL DUP1 CALLDATASIZE DUP4 CALLDATACOPY DUP1 DUP3 ADD SWAP2 POP POP SWAP1 POP JUMPDEST POP SWAP2 POP PUSH1 0x0 DUP1 PUSH1 0x1 SWAP1 POP JUMPDEST PUSH1 0x1 SLOAD DUP2 GT PUSH2 0x1432 JUMPI PUSH1 0x0 PUSH1 0x1 SWAP1 POP JUMPDEST PUSH1 0x0 DUP1 DUP4 DUP2 MSTORE PUSH1 0x20 ADD SWAP1 DUP2 MSTORE PUSH1 0x20 ADD PUSH1 0x0 KECCAK256 PUSH1 0x9 ADD SLOAD DUP2 GT PUSH2 0x141E JUMPI DUP10 PUSH1 0x0 DUP1 DUP5 DUP2 MSTORE PUSH1 0x20 ADD SWAP1 DUP2 MSTORE PUSH1 0x20 ADD PUSH1 0x0 KECCAK256 PUSH1 0x8 ADD PUSH1 0x0 DUP4 DUP2 MSTORE PUSH1 0x20 ADD SWAP1 DUP2 MSTORE PUSH1 0x20 ADD PUSH1 0x0 KECCAK256 SLOAD SUB PUSH2 0x140B JUMPI DUP2 DUP10 DUP5 DUP2 MLOAD DUP2 LT PUSH2 0x120A JUMPI PUSH2 0x1209 PUSH2 0x1EC8 JUMP JUMPDEST JUMPDEST PUSH1 0x20 MUL PUSH1 0x20 ADD ADD DUP2 DUP2 MSTORE POP POP PUSH1 0x0 DUP1 DUP4 DUP2 MSTORE PUSH1 0x20 ADD SWAP1 DUP2 MSTORE PUSH1 0x20 ADD PUSH1 0x0 KECCAK256 PUSH1 0x2 ADD DUP1 SLOAD PUSH2 0x1236 SWAP1 PUSH2 0x1E34 JUMP JUMPDEST DUP1 PUSH1 0x1F ADD PUSH1 0x20 DUP1 SWAP2 DIV MUL PUSH1 0x20 ADD PUSH1 0x40 MLOAD SWAP1 DUP2 ADD PUSH1 0x40 MSTORE DUP1 SWAP3 SWAP2 SWAP1 DUP2 DUP2 MSTORE PUSH1 0x20 ADD DUP3 DUP1 SLOAD PUSH2 0x1262 SWAP1 PUSH2 0x1E34 JUMP JUMPDEST DUP1 ISZERO PUSH2 0x12AF JUMPI DUP1 PUSH1 0x1F LT PUSH2 0x1284 JUMPI PUSH2 0x100 DUP1 DUP4 SLOAD DIV MUL DUP4 MSTORE SWAP2 PUSH1 0x20 ADD SWAP2 PUSH2 0x12AF JUMP JUMPDEST DUP3 ADD SWAP2 SWAP1 PUSH1 0x0 MSTORE PUSH1 0x20 PUSH1 0x0 KECCAK256 SWAP1 JUMPDEST DUP2 SLOAD DUP2 MSTORE SWAP1 PUSH1 0x1 ADD SWAP1 PUSH1 0x20 ADD DUP1 DUP4 GT PUSH2 0x1292 JUMPI DUP3 SWAP1 SUB PUSH1 0x1F AND DUP3 ADD SWAP2 JUMPDEST POP POP POP POP POP DUP9 DUP5 DUP2 MLOAD DUP2 LT PUSH2 0x12C7 JUMPI PUSH2 0x12C6 PUSH2 0x1EC8 JUMP JUMPDEST JUMPDEST PUSH1 0x20 MUL PUSH1 0x20 ADD ADD DUP2 SWAP1 MSTORE POP PUSH1 0x0 DUP1 DUP4 DUP2 MSTORE PUSH1 0x20 ADD SWAP1 DUP2 MSTORE PUSH1 0x20 ADD PUSH1 0x0 KECCAK256 PUSH1 0x3 ADD DUP1 SLOAD PUSH2 0x12F2 SWAP1 PUSH2 0x1E34 JUMP JUMPDEST DUP1 PUSH1 0x1F ADD PUSH1 0x20 DUP1 SWAP2 DIV MUL PUSH1 0x20 ADD PUSH1 0x40 MLOAD SWAP1 DUP2 ADD PUSH1 0x40 MSTORE DUP1 SWAP3 SWAP2 SWAP1 DUP2 DUP2 MSTORE PUSH1 0x20 ADD DUP3 DUP1 SLOAD PUSH2 0x131E SWAP1 PUSH2 0x1E34 JUMP JUMPDEST DUP1 ISZERO PUSH2 0x136B JUMPI DUP1 PUSH1 0x1F LT PUSH2 0x1340 JUMPI PUSH2 0x100 DUP1 DUP4 SLOAD DIV MUL DUP4 MSTORE SWAP2 PUSH1 0x20 ADD SWAP2 PUSH2 0x136B JUMP JUMPDEST DUP3 ADD SWAP2 SWAP1 PUSH1 0x0 MSTORE PUSH1 0x20 PUSH1 0x0 KECCAK256 SWAP1 JUMPDEST DUP2 SLOAD DUP2 MSTORE SWAP1 PUSH1 0x1 ADD SWAP1 PUSH1 0x20 ADD DUP1 DUP4 GT PUSH2 0x134E JUMPI DUP3 SWAP1 SUB PUSH1 0x1F AND DUP3 ADD SWAP2 JUMPDEST POP POP POP POP POP DUP8 DUP5 DUP2 MLOAD DUP2 LT PUSH2 0x1383 JUMPI PUSH2 0x1382 PUSH2 0x1EC8 JUMP JUMPDEST JUMPDEST PUSH1 0x20 MUL PUSH1 0x20 ADD ADD DUP2 SWAP1 MSTORE POP PUSH1 0x0 DUP1 DUP4 DUP2 MSTORE PUSH1 0x20 ADD SWAP1 DUP2 MSTORE PUSH1 0x20 ADD PUSH1 0x0 KECCAK256 PUSH1 0x4 ADD SLOAD DUP7 DUP5 DUP2 MLOAD DUP2 LT PUSH2 0x13B7 JUMPI PUSH2 0x13B6 PUSH2 0x1EC8 JUMP JUMPDEST JUMPDEST PUSH1 0x20 MUL PUSH1 0x20 ADD ADD DUP2 DUP2 MSTORE POP POP PUSH1 0x0 DUP1 DUP4 DUP2 MSTORE PUSH1 0x20 ADD SWAP1 DUP2 MSTORE PUSH1 0x20 ADD PUSH1 0x0 KECCAK256 PUSH1 0x5 ADD SLOAD DUP6 DUP5 DUP2 MLOAD DUP2 LT PUSH2 0x13EC JUMPI PUSH2 0x13EB PUSH2 0x1EC8 JUMP JUMPDEST JUMPDEST PUSH1 0x20 MUL PUSH1 0x20 ADD ADD DUP2 DUP2 MSTORE POP POP DUP3 DUP1 PUSH2 0x1403 SWAP1 PUSH2 0x1EF7 JUMP JUMPDEST SWAP4 POP POP PUSH2 0x141E JUMP JUMPDEST DUP1 DUP1 PUSH2 0x1416 SWAP1 PUSH2 0x1EF7 JUMP JUMPDEST SWAP2 POP POP PUSH2 0x11AD JUMP JUMPDEST POP DUP1 DUP1 PUSH2 0x142A SWAP1 PUSH2 0x1EF7 JUMP JUMPDEST SWAP2 POP POP PUSH2 0x119D JUMP JUMPDEST POP POP POP SWAP2 SWAP4 SWAP6 SWAP1 SWAP3 SWAP5 POP JUMP JUMPDEST PUSH1 0x0 DUP2 SWAP1 POP SWAP2 SWAP1 POP JUMP JUMPDEST PUSH2 0x1451 DUP2 PUSH2 0x143E JUMP JUMPDEST DUP3 MSTORE POP POP JUMP JUMPDEST PUSH1 0x0 PUSH1 0x20 DUP3 ADD SWAP1 POP PUSH2 0x146C PUSH1 0x0 DUP4 ADD DUP5 PUSH2 0x1448 JUMP JUMPDEST SWAP3 SWAP2 POP POP JUMP JUMPDEST PUSH1 0x0 PUSH1 0x40 MLOAD SWAP1 POP SWAP1 JUMP JUMPDEST PUSH1 0x0 DUP1 REVERT JUMPDEST PUSH1 0x0 DUP1 REVERT JUMPDEST PUSH2 0x148F DUP2 PUSH2 0x143E JUMP JUMPDEST DUP2 EQ PUSH2 0x149A JUMPI PUSH1 0x0 DUP1 REVERT JUMPDEST POP JUMP JUMPDEST PUSH1 0x0 DUP2 CALLDATALOAD SWAP1 POP PUSH2 0x14AC DUP2 PUSH2 0x1486 JUMP JUMPDEST SWAP3 SWAP2 POP POP JUMP JUMPDEST PUSH1 0x0 PUSH1 0x20 DUP3 DUP5 SUB SLT ISZERO PUSH2 0x14C8 JUMPI PUSH2 0x14C7 PUSH2 0x147C JUMP JUMPDEST JUMPDEST PUSH1 0x0 PUSH2 0x14D6 DUP5 DUP3 DUP6 ADD PUSH2 0x149D JUMP JUMPDEST SWAP2 POP POP SWAP3 SWAP2 POP POP JUMP JUMPDEST PUSH1 0x0 DUP2 MLOAD SWAP1 POP SWAP2 SWAP1 POP JUMP JUMPDEST PUSH1 0x0 DUP3 DUP3 MSTORE PUSH1 0x20 DUP3 ADD SWAP1 POP SWAP3 SWAP2 POP POP JUMP JUMPDEST PUSH1 0x0 JUMPDEST DUP4 DUP2 LT ISZERO PUSH2 0x1519 JUMPI DUP1 DUP3 ADD MLOAD DUP2 DUP5 ADD MSTORE PUSH1 0x20 DUP2 ADD SWAP1 POP PUSH2 0x14FE JUMP JUMPDEST PUSH1 0x0 DUP5 DUP5 ADD MSTORE POP POP POP POP JUMP JUMPDEST PUSH1 0x0 PUSH1 0x1F NOT PUSH1 0x1F DUP4 ADD AND SWAP1 POP SWAP2 SWAP1 POP JUMP JUMPDEST PUSH1 0x0 PUSH2 0x1541 DUP3 PUSH2 0x14DF JUMP JUMPDEST PUSH2 0x154B DUP2 DUP6 PUSH2 0x14EA JUMP JUMPDEST SWAP4 POP PUSH2 0x155B DUP2 DUP6 PUSH1 0x20 DUP7 ADD PUSH2 0x14FB JUMP JUMPDEST PUSH2 0x1564 DUP2 PUSH2 0x1525 JUMP JUMPDEST DUP5 ADD SWAP2 POP POP SWAP3 SWAP2 POP POP JUMP JUMPDEST PUSH1 0x0 DUP2 MLOAD SWAP1 POP SWAP2 SWAP1 POP JUMP JUMPDEST PUSH1 0x0 DUP3 DUP3 MSTORE PUSH1 0x20 DUP3 ADD SWAP1 POP SWAP3 SWAP2 POP POP JUMP JUMPDEST PUSH1 0x0 DUP2 SWAP1 POP PUSH1 0x20 DUP3 ADD SWAP1 POP SWAP2 SWAP1 POP JUMP JUMPDEST PUSH1 0x0 DUP3 DUP3 MSTORE PUSH1 0x20 DUP3 ADD SWAP1 POP SWAP3 SWAP2 POP POP JUMP JUMPDEST PUSH1 0x0 PUSH2 0x15B7 DUP3 PUSH2 0x14DF JUMP JUMPDEST PUSH2 0x15C1 DUP2 DUP6 PUSH2 0x159B JUMP JUMPDEST SWAP4 POP PUSH2 0x15D1 DUP2 DUP6 PUSH1 0x20 DUP7 ADD PUSH2 0x14FB JUMP JUMPDEST PUSH2 0x15DA DUP2 PUSH2 0x1525 JUMP JUMPDEST DUP5 ADD SWAP2 POP POP SWAP3 SWAP2 POP POP JUMP JUMPDEST PUSH1 0x0 PUSH2 0x15F1 DUP4 DUP4 PUSH2 0x15AC JUMP JUMPDEST SWAP1 POP SWAP3 SWAP2 POP POP JUMP JUMPDEST PUSH1 0x0 PUSH1 0x20 DUP3 ADD SWAP1 POP SWAP2 SWAP1 POP JUMP JUMPDEST PUSH1 0x0 PUSH2 0x1611 DUP3 PUSH2 0x156F JUMP JUMPDEST PUSH2 0x161B DUP2 DUP6 PUSH2 0x157A JUMP JUMPDEST SWAP4 POP DUP4 PUSH1 0x20 DUP3 MUL DUP6 ADD PUSH2 0x162D DUP6 PUSH2 0x158B JUMP JUMPDEST DUP1 PUSH1 0x0 JUMPDEST DUP6 DUP2 LT ISZERO PUSH2 0x1669 JUMPI DUP5 DUP5 SUB DUP10 MSTORE DUP2 MLOAD PUSH2 0x164A DUP6 DUP3 PUSH2 0x15E5 JUMP JUMPDEST SWAP5 POP PUSH2 0x1655 DUP4 PUSH2 0x15F9 JUMP JUMPDEST SWAP3 POP PUSH1 0x20 DUP11 ADD SWAP10 POP POP PUSH1 0x1 DUP2 ADD SWAP1 POP PUSH2 0x1631 JUMP JUMPDEST POP DUP3 SWAP8 POP DUP8 SWAP6 POP POP POP POP POP POP SWAP3 SWAP2 POP POP JUMP JUMPDEST PUSH1 0x0 PUSH1 0xA0 DUP3 ADD SWAP1 POP DUP2 DUP2 SUB PUSH1 0x0 DUP4 ADD MSTORE PUSH2 0x1695 DUP2 DUP9 PUSH2 0x1536 JUMP JUMPDEST SWAP1 POP DUP2 DUP2 SUB PUSH1 0x20 DUP4 ADD MSTORE PUSH2 0x16A9 DUP2 DUP8 PUSH2 0x1536 JUMP JUMPDEST SWAP1 POP PUSH2 0x16B8 PUSH1 0x40 DUP4 ADD DUP7 PUSH2 0x1448 JUMP JUMPDEST PUSH2 0x16C5 PUSH1 0x60 DUP4 ADD DUP6 PUSH2 0x1448 JUMP JUMPDEST DUP2 DUP2 SUB PUSH1 0x80 DUP4 ADD MSTORE PUSH2 0x16D7 DUP2 DUP5 PUSH2 0x1606 JUMP JUMPDEST SWAP1 POP SWAP7 SWAP6 POP POP POP POP POP POP JUMP JUMPDEST PUSH1 0x0 DUP2 SWAP1 POP SWAP2 SWAP1 POP JUMP JUMPDEST PUSH2 0x16F6 DUP2 PUSH2 0x16E3 JUMP JUMPDEST DUP2 EQ PUSH2 0x1701 JUMPI PUSH1 0x0 DUP1 REVERT JUMPDEST POP JUMP JUMPDEST PUSH1 0x0 DUP2 CALLDATALOAD SWAP1 POP PUSH2 0x1713 DUP2 PUSH2 0x16ED JUMP JUMPDEST SWAP3 SWAP2 POP POP JUMP JUMPDEST PUSH1 0x0 PUSH1 0x20 DUP3 DUP5 SUB SLT ISZERO PUSH2 0x172F JUMPI PUSH2 0x172E PUSH2 0x147C JUMP JUMPDEST JUMPDEST PUSH1 0x0 PUSH2 0x173D DUP5 DUP3 DUP6 ADD PUSH2 0x1704 JUMP JUMPDEST SWAP2 POP POP SWAP3 SWAP2 POP POP JUMP JUMPDEST PUSH1 0x0 DUP2 MLOAD SWAP1 POP SWAP2 SWAP1 POP JUMP JUMPDEST PUSH1 0x0 DUP3 DUP3 MSTORE PUSH1 0x20 DUP3 ADD SWAP1 POP SWAP3 SWAP2 POP POP JUMP JUMPDEST PUSH1 0x0 DUP2 SWAP1 POP PUSH1 0x20 DUP3 ADD SWAP1 POP SWAP2 SWAP1 POP JUMP JUMPDEST PUSH2 0x177B DUP2 PUSH2 0x143E JUMP JUMPDEST DUP3 MSTORE POP POP JUMP JUMPDEST PUSH1 0x0 PUSH2 0x178D DUP4 DUP4 PUSH2 0x1772 JUMP JUMPDEST PUSH1 0x20 DUP4 ADD SWAP1 POP SWAP3 SWAP2 POP POP JUMP JUMPDEST PUSH1 0x0 PUSH1 0x20 DUP3 ADD SWAP1 POP SWAP2 SWAP1 POP JUMP JUMPDEST PUSH1 0x0 PUSH2 0x17B1 DUP3 PUSH2 0x1746 JUMP JUMPDEST PUSH2 0x17BB DUP2 DUP6 PUSH2 0x1751 JUMP JUMPDEST SWAP4 POP PUSH2 0x17C6 DUP4 PUSH2 0x1762 JUMP JUMPDEST DUP1 PUSH1 0x0 JUMPDEST DUP4 DUP2 LT ISZERO PUSH2 0x17F7 JUMPI DUP2 MLOAD PUSH2 0x17DE DUP9 DUP3 PUSH2 0x1781 JUMP JUMPDEST SWAP8 POP PUSH2 0x17E9 DUP4 PUSH2 0x1799 JUMP JUMPDEST SWAP3 POP POP PUSH1 0x1 DUP2 ADD SWAP1 POP PUSH2 0x17CA JUMP JUMPDEST POP DUP6 SWAP4 POP POP POP POP SWAP3 SWAP2 POP POP JUMP JUMPDEST PUSH1 0x0 PUSH1 0xA0 DUP3 ADD SWAP1 POP DUP2 DUP2 SUB PUSH1 0x0 DUP4 ADD MSTORE PUSH2 0x181E DUP2 DUP9 PUSH2 0x17A6 JUMP JUMPDEST SWAP1 POP DUP2 DUP2 SUB PUSH1 0x20 DUP4 ADD MSTORE PUSH2 0x1832 DUP2 DUP8 PUSH2 0x1606 JUMP JUMPDEST SWAP1 POP DUP2 DUP2 SUB PUSH1 0x40 DUP4 ADD MSTORE PUSH2 0x1846 DUP2 DUP7 PUSH2 0x1606 JUMP JUMPDEST SWAP1 POP DUP2 DUP2 SUB PUSH1 0x60 DUP4 ADD MSTORE PUSH2 0x185A DUP2 DUP6 PUSH2 0x17A6 JUMP JUMPDEST SWAP1 POP DUP2 DUP2 SUB PUSH1 0x80 DUP4 ADD MSTORE PUSH2 0x186E DUP2 DUP5 PUSH2 0x17A6 JUMP JUMPDEST SWAP1 POP SWAP7 SWAP6 POP POP POP POP POP POP JUMP JUMPDEST PUSH1 0x0 DUP1 PUSH1 0x0 PUSH1 0x60 DUP5 DUP7 SUB SLT ISZERO PUSH2 0x1893 JUMPI PUSH2 0x1892 PUSH2 0x147C JUMP JUMPDEST JUMPDEST PUSH1 0x0 PUSH2 0x18A1 DUP7 DUP3 DUP8 ADD PUSH2 0x149D JUMP JUMPDEST SWAP4 POP POP PUSH1 0x20 PUSH2 0x18B2 DUP7 DUP3 DUP8 ADD PUSH2 0x149D JUMP JUMPDEST SWAP3 POP POP PUSH1 0x40 PUSH2 0x18C3 DUP7 DUP3 DUP8 ADD PUSH2 0x1704 JUMP JUMPDEST SWAP2 POP POP SWAP3 POP SWAP3 POP SWAP3 JUMP JUMPDEST PUSH1 0x0 PUSH20 0xFFFFFFFFFFFFFFFFFFFFFFFFFFFFFFFFFFFFFFFF DUP3 AND SWAP1 POP SWAP2 SWAP1 POP JUMP JUMPDEST PUSH1 0x0 PUSH2 0x18F8 DUP3 PUSH2 0x18CD JUMP JUMPDEST SWAP1 POP SWAP2 SWAP1 POP JUMP JUMPDEST PUSH2 0x1908 DUP2 PUSH2 0x18ED JUMP JUMPDEST DUP3 MSTORE POP POP JUMP JUMPDEST PUSH2 0x1917 DUP2 PUSH2 0x16E3 JUMP JUMPDEST DUP3 MSTORE POP POP JUMP JUMPDEST PUSH1 0x0 PUSH2 0x100 DUP3 ADD SWAP1 POP PUSH2 0x1933 PUSH1 0x0 DUP4 ADD DUP12 PUSH2 0x18FF JUMP JUMPDEST PUSH2 0x1940 PUSH1 0x20 DUP4 ADD DUP11 PUSH2 0x190E JUMP JUMPDEST DUP2 DUP2 SUB PUSH1 0x40 DUP4 ADD MSTORE PUSH2 0x1952 DUP2 DUP10 PUSH2 0x1536 JUMP JUMPDEST SWAP1 POP DUP2 DUP2 SUB PUSH1 0x60 DUP4 ADD MSTORE PUSH2 0x1966 DUP2 DUP9 PUSH2 0x1536 JUMP JUMPDEST SWAP1 POP PUSH2 0x1975 PUSH1 0x80 DUP4 ADD DUP8 PUSH2 0x1448 JUMP JUMPDEST PUSH2 0x1982 PUSH1 0xA0 DUP4 ADD DUP7 PUSH2 0x1448 JUMP JUMPDEST PUSH2 0x198F PUSH1 0xC0 DUP4 ADD DUP6 PUSH2 0x1448 JUMP JUMPDEST PUSH2 0x199C PUSH1 0xE0 DUP4 ADD DUP5 PUSH2 0x1448 JUMP JUMPDEST SWAP10 SWAP9 POP POP POP POP POP POP POP POP POP JUMP JUMPDEST PUSH1 0x0 DUP1 REVERT JUMPDEST PUSH1 0x0 DUP1 REVERT JUMPDEST PUSH32 0x4E487B7100000000000000000000000000000000000000000000000000000000 PUSH1 0x0 MSTORE PUSH1 0x41 PUSH1 0x4 MSTORE PUSH1 0x24 PUSH1 0x0 REVERT JUMPDEST PUSH2 0x19EB DUP3 PUSH2 0x1525 JUMP JUMPDEST DUP2 ADD DUP2 DUP2 LT PUSH8 0xFFFFFFFFFFFFFFFF DUP3 GT OR ISZERO PUSH2 0x1A0A JUMPI PUSH2 0x1A09 PUSH2 0x19B3 JUMP JUMPDEST JUMPDEST DUP1 PUSH1 0x40 MSTORE POP POP POP JUMP JUMPDEST PUSH1 0x0 PUSH2 0x1A1D PUSH2 0x1472 JUMP JUMPDEST SWAP1 POP PUSH2 0x1A29 DUP3 DUP3 PUSH2 0x19E2 JUMP JUMPDEST SWAP2 SWAP1 POP JUMP JUMPDEST PUSH1 0x0 PUSH8 0xFFFFFFFFFFFFFFFF DUP3 GT ISZERO PUSH2 0x1A49 JUMPI PUSH2 0x1A48 PUSH2 0x19B3 JUMP JUMPDEST JUMPDEST PUSH2 0x1A52 DUP3 PUSH2 0x1525 JUMP JUMPDEST SWAP1 POP PUSH1 0x20 DUP2 ADD SWAP1 POP SWAP2 SWAP1 POP JUMP JUMPDEST DUP3 DUP2 DUP4 CALLDATACOPY PUSH1 0x0 DUP4 DUP4 ADD MSTORE POP POP POP JUMP JUMPDEST PUSH1 0x0 PUSH2 0x1A81 PUSH2 0x1A7C DUP5 PUSH2 0x1A2E JUMP JUMPDEST PUSH2 0x1A13 JUMP JUMPDEST SWAP1 POP DUP3 DUP2 MSTORE PUSH1 0x20 DUP2 ADD DUP5 DUP5 DUP5 ADD GT ISZERO PUSH2 0x1A9D JUMPI PUSH2 0x1A9C PUSH2 0x19AE JUMP JUMPDEST JUMPDEST PUSH2 0x1AA8 DUP5 DUP3 DUP6 PUSH2 0x1A5F JUMP JUMPDEST POP SWAP4 SWAP3 POP POP POP JUMP JUMPDEST PUSH1 0x0 DUP3 PUSH1 0x1F DUP4 ADD SLT PUSH2 0x1AC5 JUMPI PUSH2 0x1AC4 PUSH2 0x19A9 JUMP JUMPDEST JUMPDEST DUP2 CALLDATALOAD PUSH2 0x1AD5 DUP5 DUP3 PUSH1 0x20 DUP7 ADD PUSH2 0x1A6E JUMP JUMPDEST SWAP2 POP POP SWAP3 SWAP2 POP POP JUMP JUMPDEST PUSH1 0x0 PUSH8 0xFFFFFFFFFFFFFFFF DUP3 GT ISZERO PUSH2 0x1AF9 JUMPI PUSH2 0x1AF8 PUSH2 0x19B3 JUMP JUMPDEST JUMPDEST PUSH1 0x20 DUP3 MUL SWAP1 POP PUSH1 0x20 DUP2 ADD SWAP1 POP SWAP2 SWAP1 POP JUMP JUMPDEST PUSH1 0x0 DUP1 REVERT JUMPDEST PUSH1 0x0 PUSH2 0x1B22 PUSH2 0x1B1D DUP5 PUSH2 0x1ADE JUMP JUMPDEST PUSH2 0x1A13 JUMP JUMPDEST SWAP1 POP DUP1 DUP4 DUP3 MSTORE PUSH1 0x20 DUP3 ADD SWAP1 POP PUSH1 0x20 DUP5 MUL DUP4 ADD DUP6 DUP2 GT ISZERO PUSH2 0x1B45 JUMPI PUSH2 0x1B44 PUSH2 0x1B0A JUMP JUMPDEST JUMPDEST DUP4 JUMPDEST DUP2 DUP2 LT ISZERO PUSH2 0x1B8C JUMPI DUP1 CALLDATALOAD PUSH8 0xFFFFFFFFFFFFFFFF DUP2 GT ISZERO PUSH2 0x1B6A JUMPI PUSH2 0x1B69 PUSH2 0x19A9 JUMP JUMPDEST JUMPDEST DUP1 DUP7 ADD PUSH2 0x1B77 DUP10 DUP3 PUSH2 0x1AB0 JUMP JUMPDEST DUP6 MSTORE PUSH1 0x20 DUP6 ADD SWAP5 POP POP POP PUSH1 0x20 DUP2 ADD SWAP1 POP PUSH2 0x1B47 JUMP JUMPDEST POP POP POP SWAP4 SWAP3 POP POP POP JUMP JUMPDEST PUSH1 0x0 DUP3 PUSH1 0x1F DUP4 ADD SLT PUSH2 0x1BAB JUMPI PUSH2 0x1BAA PUSH2 0x19A9 JUMP JUMPDEST JUMPDEST DUP2 CALLDATALOAD PUSH2 0x1BBB DUP5 DUP3 PUSH1 0x20 DUP7 ADD PUSH2 0x1B0F JUMP JUMPDEST SWAP2 POP POP SWAP3 SWAP2 POP POP JUMP JUMPDEST PUSH1 0x0 PUSH8 0xFFFFFFFFFFFFFFFF DUP3 GT ISZERO PUSH2 0x1BDF JUMPI PUSH2 0x1BDE PUSH2 0x19B3 JUMP JUMPDEST JUMPDEST PUSH1 0x20 DUP3 MUL SWAP1 POP PUSH1 0x20 DUP2 ADD SWAP1 POP SWAP2 SWAP1 POP JUMP JUMPDEST PUSH1 0x0 PUSH2 0x1C03 PUSH2 0x1BFE DUP5 PUSH2 0x1BC4 JUMP JUMPDEST PUSH2 0x1A13 JUMP JUMPDEST SWAP1 POP DUP1 DUP4 DUP3 MSTORE PUSH1 0x20 DUP3 ADD SWAP1 POP PUSH1 0x20 DUP5 MUL DUP4 ADD DUP6 DUP2 GT ISZERO PUSH2 0x1C26 JUMPI PUSH2 0x1C25 PUSH2 0x1B0A JUMP JUMPDEST JUMPDEST DUP4 JUMPDEST DUP2 DUP2 LT ISZERO PUSH2 0x1C4F JUMPI DUP1 PUSH2 0x1C3B DUP9 DUP3 PUSH2 0x1704 JUMP JUMPDEST DUP5 MSTORE PUSH1 0x20 DUP5 ADD SWAP4 POP POP PUSH1 0x20 DUP2 ADD SWAP1 POP PUSH2 0x1C28 JUMP JUMPDEST POP POP POP SWAP4 SWAP3 POP POP POP JUMP JUMPDEST PUSH1 0x0 DUP3 PUSH1 0x1F DUP4 ADD SLT PUSH2 0x1C6E JUMPI PUSH2 0x1C6D PUSH2 0x19A9 JUMP JUMPDEST JUMPDEST DUP2 CALLDATALOAD PUSH2 0x1C7E DUP5 DUP3 PUSH1 0x20 DUP7 ADD PUSH2 0x1BF0 JUMP JUMPDEST SWAP2 POP POP SWAP3 SWAP2 POP POP JUMP JUMPDEST PUSH1 0x0 DUP1 PUSH1 0x0 DUP1 PUSH1 0x0 DUP1 PUSH1 0x0 PUSH1 0xE0 DUP9 DUP11 SUB SLT ISZERO PUSH2 0x1CA6 JUMPI PUSH2 0x1CA5 PUSH2 0x147C JUMP JUMPDEST JUMPDEST PUSH1 0x0 PUSH2 0x1CB4 DUP11 DUP3 DUP12 ADD PUSH2 0x1704 JUMP JUMPDEST SWAP8 POP POP PUSH1 0x20 DUP9 ADD CALLDATALOAD PUSH8 0xFFFFFFFFFFFFFFFF DUP2 GT ISZERO PUSH2 0x1CD5 JUMPI PUSH2 0x1CD4 PUSH2 0x1481 JUMP JUMPDEST JUMPDEST PUSH2 0x1CE1 DUP11 DUP3 DUP12 ADD PUSH2 0x1AB0 JUMP JUMPDEST SWAP7 POP POP PUSH1 0x40 DUP9 ADD CALLDATALOAD PUSH8 0xFFFFFFFFFFFFFFFF DUP2 GT ISZERO PUSH2 0x1D02 JUMPI PUSH2 0x1D01 PUSH2 0x1481 JUMP JUMPDEST JUMPDEST PUSH2 0x1D0E DUP11 DUP3 DUP12 ADD PUSH2 0x1AB0 JUMP JUMPDEST SWAP6 POP POP PUSH1 0x60 PUSH2 0x1D1F DUP11 DUP3 DUP12 ADD PUSH2 0x149D JUMP JUMPDEST SWAP5 POP POP PUSH1 0x80 PUSH2 0x1D30 DUP11 DUP3 DUP12 ADD PUSH2 0x149D JUMP JUMPDEST SWAP4 POP POP PUSH1 0xA0 DUP9 ADD CALLDATALOAD PUSH8 0xFFFFFFFFFFFFFFFF DUP2 GT ISZERO PUSH2 0x1D51 JUMPI PUSH2 0x1D50 PUSH2 0x1481 JUMP JUMPDEST JUMPDEST PUSH2 0x1D5D DUP11 DUP3 DUP12 ADD PUSH2 0x1B96 JUMP JUMPDEST SWAP3 POP POP PUSH1 0xC0 DUP9 ADD CALLDATALOAD PUSH8 0xFFFFFFFFFFFFFFFF DUP2 GT ISZERO PUSH2 0x1D7E JUMPI PUSH2 0x1D7D PUSH2 0x1481 JUMP JUMPDEST JUMPDEST PUSH2 0x1D8A DUP11 DUP3 DUP12 ADD PUSH2 0x1C59 JUMP JUMPDEST SWAP2 POP POP SWAP3 SWAP6 SWAP9 SWAP2 SWAP5 SWAP8 POP SWAP3 SWAP6 POP JUMP JUMPDEST PUSH32 0x496E76616C696420706F6C6C2049440000000000000000000000000000000000 PUSH1 0x0 DUP3 ADD MSTORE POP JUMP JUMPDEST PUSH1 0x0 PUSH2 0x1DCF PUSH1 0xF DUP4 PUSH2 0x14EA JUMP JUMPDEST SWAP2 POP PUSH2 0x1DDA DUP3 PUSH2 0x1D99 JUMP JUMPDEST PUSH1 0x20 DUP3 ADD SWAP1 POP SWAP2 SWAP1 POP JUMP JUMPDEST PUSH1 0x0 PUSH1 0x20 DUP3 ADD SWAP1 POP DUP2 DUP2 SUB PUSH1 0x0 DUP4 ADD MSTORE PUSH2 0x1DFE DUP2 PUSH2 0x1DC2 JUMP JUMPDEST SWAP1 POP SWAP2 SWAP1 POP JUMP JUMPDEST PUSH32 0x4E487B7100000000000000000000000000000000000000000000000000000000 PUSH1 0x0 MSTORE PUSH1 0x22 PUSH1 0x4 MSTORE PUSH1 0x24 PUSH1 0x0 REVERT JUMPDEST PUSH1 0x0 PUSH1 0x2 DUP3 DIV SWAP1 POP PUSH1 0x1 DUP3 AND DUP1 PUSH2 0x1E4C JUMPI PUSH1 0x7F DUP3 AND SWAP2 POP JUMPDEST PUSH1 0x20 DUP3 LT DUP2 SUB PUSH2 0x1E5F JUMPI PUSH2 0x1E5E PUSH2 0x1E05 JUMP JUMPDEST JUMPDEST POP SWAP2 SWAP1 POP JUMP JUMPDEST PUSH32 0x4E487B7100000000000000000000000000000000000000000000000000000000 PUSH1 0x0 MSTORE PUSH1 0x11 PUSH1 0x4 MSTORE PUSH1 0x24 PUSH1 0x0 REVERT JUMPDEST PUSH1 0x0 PUSH2 0x1E9F DUP3 PUSH2 0x143E JUMP JUMPDEST SWAP2 POP PUSH2 0x1EAA DUP4 PUSH2 0x143E JUMP JUMPDEST SWAP3 POP DUP3 DUP3 SUB SWAP1 POP DUP2 DUP2 GT ISZERO PUSH2 0x1EC2 JUMPI PUSH2 0x1EC1 PUSH2 0x1E65 JUMP JUMPDEST JUMPDEST SWAP3 SWAP2 POP POP JUMP JUMPDEST PUSH32 0x4E487B7100000000000000000000000000000000000000000000000000000000 PUSH1 0x0 MSTORE PUSH1 0x32 PUSH1 0x4 MSTORE PUSH1 0x24 PUSH1 0x0 REVERT JUMPDEST PUSH1 0x0 PUSH2 0x1F02 DUP3 PUSH2 0x143E JUMP JUMPDEST SWAP2 POP PUSH32 0xFFFFFFFFFFFFFFFFFFFFFFFFFFFFFFFFFFFFFFFFFFFFFFFFFFFFFFFFFFFFFFFF DUP3 SUB PUSH2 0x1F34 JUMPI PUSH2 0x1F33 PUSH2 0x1E65 JUMP JUMPDEST JUMPDEST PUSH1 0x1 DUP3 ADD SWAP1 POP SWAP2 SWAP1 POP JUMP JUMPDEST PUSH32 0x506F6C6C206E6F74206163746976650000000000000000000000000000000000 PUSH1 0x0 DUP3 ADD MSTORE POP JUMP JUMPDEST PUSH1 0x0 PUSH2 0x1F75 PUSH1 0xF DUP4 PUSH2 0x14EA JUMP JUMPDEST SWAP2 POP PUSH2 0x1F80 DUP3 PUSH2 0x1F3F JUMP JUMPDEST PUSH1 0x20 DUP3 ADD SWAP1 POP SWAP2 SWAP1 POP JUMP JUMPDEST PUSH1 0x0 PUSH1 0x20 DUP3 ADD SWAP1 POP DUP2 DUP2 SUB PUSH1 0x0 DUP4 ADD MSTORE PUSH2 0x1FA4 DUP2 PUSH2 0x1F68 JUMP JUMPDEST SWAP1 POP SWAP2 SWAP1 POP JUMP JUMPDEST PUSH32 0x416C726561647920766F74656400000000000000000000000000000000000000 PUSH1 0x0 DUP3 ADD MSTORE POP JUMP JUMPDEST PUSH1 0x0 PUSH2 0x1FE1 PUSH1 0xD DUP4 PUSH2 0x14EA JUMP JUMPDEST SWAP2 POP PUSH2 0x1FEC DUP3 PUSH2 0x1FAB JUMP JUMPDEST PUSH1 0x20 DUP3 ADD SWAP1 POP SWAP2 SWAP1 POP JUMP JUMPDEST PUSH1 0x0 PUSH1 0x20 DUP3 ADD SWAP1 POP DUP2 DUP2 SUB PUSH1 0x0 DUP4 ADD MSTORE PUSH2 0x2010 DUP2 PUSH2 0x1FD4 JUMP JUMPDEST SWAP1 POP SWAP2 SWAP1 POP JUMP JUMPDEST PUSH32 0x4E6F742061207265676973746572656420766F74657200000000000000000000 PUSH1 0x0 DUP3 ADD MSTORE POP JUMP JUMPDEST PUSH1 0x0 PUSH2 0x204D PUSH1 0x16 DUP4 PUSH2 0x14EA JUMP JUMPDEST SWAP2 POP PUSH2 0x2058 DUP3 PUSH2 0x2017 JUMP JUMPDEST PUSH1 0x20 DUP3 ADD SWAP1 POP SWAP2 SWAP1 POP JUMP JUMPDEST PUSH1 0x0 PUSH1 0x20 DUP3 ADD SWAP1 POP DUP2 DUP2 SUB PUSH1 0x0 DUP4 ADD MSTORE PUSH2 0x207C DUP2 PUSH2 0x2040 JUMP JUMPDEST SWAP1 POP SWAP2 SWAP1 POP JUMP JUMPDEST PUSH32 0x43616E64696461746520646F6573206E6F742065786973740000000000000000 PUSH1 0x0 DUP3 ADD MSTORE POP JUMP JUMPDEST PUSH1 0x0 PUSH2 0x20B9 PUSH1 0x18 DUP4 PUSH2 0x14EA JUMP JUMPDEST SWAP2 POP PUSH2 0x20C4 DUP3 PUSH2 0x2083 JUMP JUMPDEST PUSH1 0x20 DUP3 ADD SWAP1 POP SWAP2 SWAP1 POP JUMP JUMPDEST PUSH1 0x0 PUSH1 0x20 DUP3 ADD SWAP1 POP DUP2 DUP2 SUB PUSH1 0x0 DUP4 ADD MSTORE PUSH2 0x20E8 DUP2 PUSH2 0x20AC JUMP JUMPDEST SWAP1 POP SWAP2 SWAP1 POP JUMP JUMPDEST PUSH32 0x53746172742074696D65206D757374206265206265666F726520656E64207469 PUSH1 0x0 DUP3 ADD MSTORE PUSH32 0x6D65000000000000000000000000000000000000000000000000000000000000 PUSH1 0x20 DUP3 ADD MSTORE POP JUMP JUMPDEST PUSH1 0x0 PUSH2 0x214B PUSH1 0x22 DUP4 PUSH2 0x14EA JUMP JUMPDEST SWAP2 POP PUSH2 0x2156 DUP3 PUSH2 0x20EF JUMP JUMPDEST PUSH1 0x40 DUP3 ADD SWAP1 POP SWAP2 SWAP1 POP JUMP JUMPDEST PUSH1 0x0 PUSH1 0x20 DUP3 ADD SWAP1 POP DUP2 DUP2 SUB PUSH1 0x0 DUP4 ADD MSTORE PUSH2 0x217A DUP2 PUSH2 0x213E JUMP JUMPDEST SWAP1 POP SWAP2 SWAP1 POP JUMP JUMPDEST PUSH32 0x4174206C65617374206F6E652063616E64696461746520697320726571756972 PUSH1 0x0 DUP3 ADD MSTORE PUSH32 0x6564000000000000000000000000000000000000000000000000000000000000 PUSH1 0x20 DUP3 ADD MSTORE POP JUMP JUMPDEST PUSH1 0x0 PUSH2 0x21DD PUSH1 0x22 DUP4 PUSH2 0x14EA JUMP JUMPDEST SWAP2 POP PUSH2 0x21E8 DUP3 PUSH2 0x2181 JUMP JUMPDEST PUSH1 0x40 DUP3 ADD SWAP1 POP SWAP2 SWAP1 POP JUMP JUMPDEST PUSH1 0x0 PUSH1 0x20 DUP3 ADD SWAP1 POP DUP2 DUP2 SUB PUSH1 0x0 DUP4 ADD MSTORE PUSH2 0x220C DUP2 PUSH2 0x21D0 JUMP JUMPDEST SWAP1 POP SWAP2 SWAP1 POP JUMP JUMPDEST PUSH32 0x4174206C65617374206F6E6520766F7465722069732072657175697265640000 PUSH1 0x0 DUP3 ADD MSTORE POP JUMP JUMPDEST PUSH1 0x0 PUSH2 0x2249 PUSH1 0x1E DUP4 PUSH2 0x14EA JUMP JUMPDEST SWAP2 POP PUSH2 0x2254 DUP3 PUSH2 0x2213 JUMP JUMPDEST PUSH1 0x20 DUP3 ADD SWAP1 POP SWAP2 SWAP1 POP JUMP JUMPDEST PUSH1 0x0 PUSH1 0x20 DUP3 ADD SWAP1 POP DUP2 DUP2 SUB PUSH1 0x0 DUP4 ADD MSTORE PUSH2 0x2278 DUP2 PUSH2 0x223C JUMP JUMPDEST SWAP1 POP SWAP2 SWAP1 POP JUMP JUMPDEST PUSH1 0x0 DUP2 SWAP1 POP DUP2 PUSH1 0x0 MSTORE PUSH1 0x20 PUSH1 0x0 KECCAK256 SWAP1 POP SWAP2 SWAP1 POP JUMP JUMPDEST PUSH1 0x0 PUSH1 0x20 PUSH1 0x1F DUP4 ADD DIV SWAP1 POP SWAP2 SWAP1 POP JUMP JUMPDEST PUSH1 0x0 DUP3 DUP3 SHL SWAP1 POP SWAP3 SWAP2 POP POP JUMP JUMPDEST PUSH1 0x0 PUSH1 0x8 DUP4 MUL PUSH2 0x22E1 PUSH32 0xFFFFFFFFFFFFFFFFFFFFFFFFFFFFFFFFFFFFFFFFFFFFFFFFFFFFFFFFFFFFFFFF DUP3 PUSH2 0x22A4 JUMP JUMPDEST PUSH2 0x22EB DUP7 DUP4 PUSH2 0x22A4 JUMP JUMPDEST SWAP6 POP DUP1 NOT DUP5 AND SWAP4 POP DUP1 DUP7 AND DUP5 OR SWAP3 POP POP POP SWAP4 SWAP3 POP POP POP JUMP JUMPDEST PUSH1 0x0 DUP2 SWAP1 POP SWAP2 SWAP1 POP JUMP JUMPDEST PUSH1 0x0 PUSH2 0x2328 PUSH2 0x2323 PUSH2 0x231E DUP5 PUSH2 0x143E JUMP JUMPDEST PUSH2 0x2303 JUMP JUMPDEST PUSH2 0x143E JUMP JUMPDEST SWAP1 POP SWAP2 SWAP1 POP JUMP JUMPDEST PUSH1 0x0 DUP2 SWAP1 POP SWAP2 SWAP1 POP JUMP JUMPDEST PUSH2 0x2342 DUP4 PUSH2 0x230D JUMP JUMPDEST PUSH2 0x2356 PUSH2 0x234E DUP3 PUSH2 0x232F JUMP JUMPDEST DUP5 DUP5 SLOAD PUSH2 0x22B1 JUMP JUMPDEST DUP3 SSTORE POP POP POP POP JUMP JUMPDEST PUSH1 0x0 SWAP1 JUMP JUMPDEST PUSH2 0x236B PUSH2 0x235E JUMP JUMPDEST PUSH2 0x2376 DUP2 DUP5 DUP5 PUSH2 0x2339 JUMP JUMPDEST POP POP POP JUMP JUMPDEST JUMPDEST DUP2 DUP2 LT ISZERO PUSH2 0x239A JUMPI PUSH2 0x238F PUSH1 0x0 DUP3 PUSH2 0x2363 JUMP JUMPDEST PUSH1 0x1 DUP2 ADD SWAP1 POP PUSH2 0x237C JUMP JUMPDEST POP POP JUMP JUMPDEST PUSH1 0x1F DUP3 GT ISZERO PUSH2 0x23DF JUMPI PUSH2 0x23B0 DUP2 PUSH2 0x227F JUMP JUMPDEST PUSH2 0x23B9 DUP5 PUSH2 0x2294 JUMP JUMPDEST DUP2 ADD PUSH1 0x20 DUP6 LT ISZERO PUSH2 0x23C8 JUMPI DUP2 SWAP1 POP JUMPDEST PUSH2 0x23DC PUSH2 0x23D4 DUP6 PUSH2 0x2294 JUMP JUMPDEST DUP4 ADD DUP3 PUSH2 0x237B JUMP JUMPDEST POP POP JUMPDEST POP POP POP JUMP JUMPDEST PUSH1 0x0 DUP3 DUP3 SHR SWAP1 POP SWAP3 SWAP2 POP POP JUMP JUMPDEST PUSH1 0x0 PUSH2 0x2402 PUSH1 0x0 NOT DUP5 PUSH1 0x8 MUL PUSH2 0x23E4 JUMP JUMPDEST NOT DUP1 DUP4 AND SWAP2 POP POP SWAP3 SWAP2 POP POP JUMP JUMPDEST PUSH1 0x0 PUSH2 0x241B DUP4 DUP4 PUSH2 0x23F1 JUMP JUMPDEST SWAP2 POP DUP3 PUSH1 0x2 MUL DUP3 OR SWAP1 POP SWAP3 SWAP2 POP POP JUMP JUMPDEST PUSH2 0x2434 DUP3 PUSH2 0x14DF JUMP JUMPDEST PUSH8 0xFFFFFFFFFFFFFFFF DUP2 GT ISZERO PUSH2 0x244D JUMPI PUSH2 0x244C PUSH2 0x19B3 JUMP JUMPDEST JUMPDEST PUSH2 0x2457 DUP3 SLOAD PUSH2 0x1E34 JUMP JUMPDEST PUSH2 0x2462 DUP3 DUP3 DUP6 PUSH2 0x239E JUMP JUMPDEST PUSH1 0x0 PUSH1 0x20 SWAP1 POP PUSH1 0x1F DUP4 GT PUSH1 0x1 DUP2 EQ PUSH2 0x2495 JUMPI PUSH1 0x0 DUP5 ISZERO PUSH2 0x2483 JUMPI DUP3 DUP8 ADD MLOAD SWAP1 POP JUMPDEST PUSH2 0x248D DUP6 DUP3 PUSH2 0x240F JUMP JUMPDEST DUP7 SSTORE POP PUSH2 0x24F5 JUMP JUMPDEST PUSH1 0x1F NOT DUP5 AND PUSH2 0x24A3 DUP7 PUSH2 0x227F JUMP JUMPDEST PUSH1 0x0 JUMPDEST DUP3 DUP2 LT ISZERO PUSH2 0x24CB JUMPI DUP5 DUP10 ADD MLOAD DUP3 SSTORE PUSH1 0x1 DUP3 ADD SWAP2 POP PUSH1 0x20 DUP6 ADD SWAP5 POP PUSH1 0x20 DUP2 ADD SWAP1 POP PUSH2 0x24A6 JUMP JUMPDEST DUP7 DUP4 LT ISZERO PUSH2 0x24E8 JUMPI DUP5 DUP10 ADD MLOAD PUSH2 0x24E4 PUSH1 0x1F DUP10 AND DUP3 PUSH2 0x23F1 JUMP JUMPDEST DUP4 SSTORE POP JUMPDEST PUSH1 0x1 PUSH1 0x2 DUP9 MUL ADD DUP9 SSTORE POP POP POP JUMPDEST POP POP POP POP POP POP JUMP JUMPDEST PUSH1 0x0 PUSH2 0x2508 DUP3 PUSH2 0x143E JUMP JUMPDEST SWAP2 POP PUSH2 0x2513 DUP4 PUSH2 0x143E JUMP JUMPDEST SWAP3 POP DUP3 DUP3 ADD SWAP1 POP DUP1 DUP3 GT ISZERO PUSH2 0x252B JUMPI PUSH2 0x252A PUSH2 0x1E65 JUMP JUMPDEST JUMPDEST SWAP3 SWAP2 POP POP JUMP INVALID LOG2 PUSH5 0x6970667358 0x22 SLT KECCAK256 DUP16 DUP15 OR NOT SSTORE 0xBF SMOD 0xD1 0xC3 0xD3 0xC3 LOG1 0xC1 MOD CREATE2 LOG3 EXTCODEHASH SIGNEXTEND ADD 0xB6 0xD6 0xBC PUSH16 0x8DC22CAEDDF15E484B64736F6C634300 ADDMOD SHR STOP CALLER "
        },
        "methodIdentifiers": {
          "createPoll(bytes32,string,string,uint256,uint256,string[],bytes32[])": "c7f16434",
          "getPoll(uint256)": "1a8cbcaa",
          "getPollCount()": "11a52746",
          "getPollsByCreator(bytes32)": "87612416",
          "getPollsByVoter(bytes32)": "fa24a7b3",
          "pollCount()": "9207891d",
          "polls(uint256)": "ac2f0074",
          "vote(uint256,uint256,bytes32)": "8c881eeb"
        }
      }
    }
  }
}